S0130000524144494F49425F4D43552E73726563D3
S1130000F3C0000004C6000001C10000FFC00000EE
S1130010FDC00000FBC00000F9C00000F7C00000F4
S1130020F5C00000F3C00000F1C00000EFC0000004
S1130030EDC00000EBC0000011C60000E7C00000E6
S1130040E5C00000E3C00000E1C00000DFC0000024
S1130050DDC00000DBC00000D9C00000D7C0000034
S1130060D5C0000031C60000D1C00000CFC00000E0
S1130070CDC00000CBC00000C9C00000C7C0000054
S1130080C5C00000C3C00000C1C00000BFC0000064
S1130090BDC00000BBC00000B9C00000B7C0000074
S11300A0B5C00000B3C00000B1C00000AFC0000084
S11300B0ADC00000ABC00000A9C00000A7C0000094
S11300C0A5C00000A3C00000A1C000009FC00000A4
S11300D09DC000009BC0000099C0000097C00000B4
S11300E095C0000093C0000091C000008FC00000C4
S11300F08DC000008BC0000089C0000087C00000D4
S113010085C0000083C0000081C000007FC00000E3
S11301107DC000007BC0000079C0000077C00000F3
S113012075C0000073C0000071C000006FC0000003
S11301306DC000006BC0000069C0000067C0000013
S113014065C0000063C0000061C000005FC0000023
S11301505DC000005BC0000059C0000057C0000033
S11301601DC6000053C0000051C000004FC0000075
S11301704DC000004BC0000049C0000047C0000053
S113018045C0000043C0000041C000003FC0000063
S11301903DC000003BC0000039C0000037C0000073
S11301A035C0000033C0000031C000002FC0000083
S11301B02DC000002BC0000029C0000027C0000093
S11301C025C0000023C0000021C000001FC00000A3
S11301D01DC000001BC0000019C0000017C00000B3
S11301E015C0000013C0000011241FBECFEFDFE5CF
S11301F0DEBFCDBF00E00CBF29E2A0E0B0E201C049
S11302001D92A937B207E1F7FFD1B3C7F9CE0F9317
S11302101F93CF93DF93CDB7DEB72997CDBFDEBF52
S113022083E08093A2008091A20080688093A20062
S1130230789431D2A8D2009138221091392283E0E7
S113024090E08D839E831F821886198640E052ECCD
S113025061E070E049835A836B837C83003A88E0D1
S1130260180709F4B8C0003B88E0180709F4BDC0BA
S1130270003A89E0180709F4C7C0003B89E0180771
S113028009F4CCC0003A8AE0180709F4CCC0003B5A
S11302908AE0180709F4D1C0003A8BE0180709F482
S11302A0D6C0003B8BE0180709F48BC0BE016F5F1A
S11302B07F4FC8011FD1E0913822F0913922838108
S11302C08F7C8061838300911C2110911D2183E028
S11302D090E08D839E831F821886198640E052EC3D
S11302E061E070E049835A836B837C83003A88E041
S11302F0180709F475C0003B88E0180709F47AC0B0
S1130300003A89E0180709F47AC0003B89E018072D
S113031009F47FC0003A8AE0180709F489C0003B59
S11303208AE0180709F48EC0003A8BE0180709F434
S113033093C0003B8BE0180709F448C0BE016F5F0F
S11303407F4FC801D7D0E0911C21F0911D218381FA
S11303508F7C8061838382E0868386E9878361E082
S113036083E090E0B6D0809106088C7F8160809312
S113037006088DE790E080932608909327088091E3
S11303800008807F86608093000880E380934106A4
S113039080E28093450698E09093410680E880933C
S11303A04106909361068093610690938106809341
S11303B081062996CDBFDEBFDF91CF911F910F91AA
S11303C0089560E286E090E084D070CF60E286E039
S11303D090E07FD0B3CF60E183E090E07AD066CF45
S11303E060E183E090E075D0A9CF60E283E090E023
S11303F070D05CCF60E283E090E06BD09FCF60E18F
S113040084E090E066D09ACF60E184E090E061D02F
S11304104DCF60E284E090E05CD090CF60E284E075
S113042090E057D043CF60E185E090E052D03ECFDA
S113043060E185E090E04DD081CF60E285E090E01E
S113044048D034CF60E285E090E043D077CF60E1DC
S113045086E090E03ED02ACF60E186E090E039D09B
S11304606DCF81E08093782980EC80935200809155
S11304705000886080935000809150008260809387
S113048050008091510081FD08C061E080E490E05B
S11304902BD08091510081FFF8CF8091510083FFD0
S11304A017C082EC80935500809150008061809346
S11304B050008091510084FFFCCF64E080E490E020
S11304C013D061E083E590E00FD01092782908956D
S11304D008952FB7F894FC01E059FF4F609580818F
S11304E0862380832FBF08951BBEFC0128ED24BF03
S11304F0608308950F931F93CF93DF93EC018B01D7
S1130500C03A88E0D80709F45CC0C03BE8E0DE07E5
S113051009F45CC0C03AF9E0DF0709F45CC0C03BF1
S113052089E0D80709F45CC0C03AEAE0DE0709F4C0
S11305305CC0C03BFAE0DF0709F45CC0C03A8BE062
S1130540D80709F45CC0C03BEBE0DE07A9F18D815C
S11305508F738D83F80186819481892B90859923EB
S113056049F198E0892B8D83F80100811181228162
S113057033818C8182FF19C040E950ED63E070E063
S1130580401751076207730728F08C8186E98F832F
S113059082E08E838C8188608C838C8180618C83E3
S11305A0DF91CF911F910F91089548E458EE61E0D7
S11305B070E0E6CF90E0D6CF60E286E090E089DF9D
S11305C0C6CF60E183E090E084DFB3CF60E283E0F4
S11305D090E07FDFAECF60E184E090E07ADFAECFE1
S11305E060E284E090E075DFB2CF60E185E090E006
S11305F070DFADCF60E285E090E06BDFA8CF60E113
S113060086E090E066DFA3CF02DEFED280E090E0D9
S11306100895E0E0F1E090819C7F982B9083089509
S1130620FC0120812068208308958F92AF92BF92AD
S1130630CF92EF920F931F93CF93DF93CDB7DEB793
S1130640FC01608771871286048715871686242B20
S11306502E292C292283A482B58280818C7D88292D
S11306609E85992371F0806280838D858683DF91D6
S1130670CF911F910F91EF90CF90BF90AF908F903B
S113068008958083F4CFFC012081246020830895A1
S1130690FC01638308952FB7F89480E291E280937C
S11306A01F22909320228093212290932222109241
S11306B023222FBF80EA99E080931C2190931D216F
S11306C080E191E080931E2190931F2184E593E2C1
S11306D080932422909325221092292288E092E08C
S11306E0809326229093272210922A2210922B2262
S11306F010923422109235221092302224E637E2EE
S113070020933222309333222AE020932C224FB7B5
S1130710F8942CE332E220933B2330933C23209340
S11307203D2330933E2310923F234FBF20EA38E00D
S1130730209338223093392220E331E020933A2267
S113074030933B222CE535E2209340233093412320
S1130750109245238093422390934323109246237F
S113076010924723109250231092512310924C233D
S113077010924E2310924F2385E0809348238AEAF7
S1130780809310210895CF93DF9361E080E090E09F
S1130790A0DEE0E0F1E080818068808381E090E089
S11307A038DFCEE1D1E2888199816DDF6CE6888102
S11307B099816EDFCAE3D2E28881998164DF6CE4B7
S11307C088819981DF91CF9163CFFF920F931F931B
S11307D0CF93DF9380914623909147232091302239
S11307E0211102C088E090E020E231E247E0F42EDB
S11307F006E0B8E4A5E014E0D3E072E0C1E01EC076
S1130800413009F450C0423009F450C0433009F477
S113081066C0503C09F46EC0433068F0E091402358
S1130820F0914123E80FF91F508301964091302243
S1130830463009F477C0473009F442C05FB7F894F2
S1130840409123225FBF442321F1E0912122F091C2
S113085022225191E0932122F0932222EF51F2427D
S113086051F16FB7F89440912322415040932322D1
S11308706FBF40913022503C09F0C2CF4111C0CF2C
S1130880C09330225FB7F894409123225FBF411197
S1130890DCCF8093462390934723DF91CF911F9120
S11308A00F91FF90089570933022C8CF583459F1B6
S11308B0A0933022B3CF2093212230932222D1CF90
S11308C021E020934523039720914A2330914B2321
S11308D02F5F3F4F20934A2330934B23DACF553673
S11308E0A9F0E0914023F0914123E80FF91F3197DB
S11308F0B083DECF453009F483C0443009F08CCF97
S1130900F09230228BCFD093302288CF10933022B4
S1130910E0914023F0914123B0834091302281E063
S113092090E07ACF21E020934523AC014350510954
S113093020914A2330914B232F5F3F4F20934A232A
S113094030934B23E0914023F091412328E420830A
S1130950E0914023F091412325E62183E091402357
S1130960F091412320E12283E0914023F09141233F
S113097023E02383E0914023F09141239C012B50F9
S113098031093483E0914023F0914123242F2850EE
S11309902583E0914023F091412322813381320F5A
S11309A0230F6481630F260F3581360F3683E09160
S11309B04023F0914123230F2783609140237091BA
S11309C0412349305105F8F0FB01389628E030E026
S11309D0B0E0A0E0C191AC0FBA0F2F5F3F4F2417D6
S11309E03507C0F3FB01E40FF51FA083E09140231A
S11309F0F0914123E80FF91F3297B083019749CF53
S1130A00009330220BCFB0E0A0E0ECCFCF93DF9384
S1130A1080912A2290912B226CE372E2CBE0DAE0FF
S1130A20B1E05FB7F89440913F235FBF442309F4DA
S1130A304CC0E0913D23F0913E23A191E0933D23EE
S1130A40F0933E23EB53F34209F47AC05FB7F89472
S1130A5040913F23415040933F235FBF8430910531
S1130A6009F458C08530910509F45FC086319105B9
S1130A7009F46BC0209136222B3091F1209134225D
S1130A80309135228731910590F0A9014A5F5F4F7B
S1130A908417950760F4E0913222F0913322E80F35
S1130AA0F91F7797A0832091342230913522A90130
S1130AB0475F5F4F4817590779F001965FB7F8947D
S1130AC040913F235FBF4111B4CF80932A2290937A
S1130AD02B22DF91CF910895B09329220196EECF76
S1130AE020913422309135228631910500F3A901F9
S1130AF04A5F5F4F84179507D0F6E0913222F09158
S1130B003322E80FF91F7697A08320913422309185
S1130B103522CDCF3A2F20E0209334223093352252
S1130B20409136224B3019F6DFCF20913422309198
S1130B3035222A0F311D2093342230933522F0CFF1
S1130B4060933D2370933E2381CFA83079F0A83180
S1130B5069F0A83491F0A83581F0A83289F0A8335F
S1130B6079F02091342230913522DACFC0933622A5
S1130B702091342230913522BACFD093362293CFAC
S1130B80B093362290CF8F929F92AF92BF92CF9222
S1130B90DF92EF92FF920F931F93CF93DF93EC01B9
S1130BA0FC01E25FFE4FA080B18008811981FC0145
S1130BB0E85FFE4F608171811F921F92812C912CFE
S1130BC0C12CD12CE12CF12C20E130E040E050E0AC
S1130BD08A819B812ADD8A819B8122DDCE5EDE4F64
S1130BE0888199810196888399830F900F90DF9172
S1130BF0CF911F910F91FF90EF90DF90CF90BF9016
S1130C00AF909F908F90089579D11ED1FDCF1F9200
S1130C100F920FB60F9211240BB60F922F933F939E
S1130C204F935F936F937F938F939F93AF93BF93F0
S1130C30EF93FF9316DCFF91EF91BF91AF919F91DA
S1130C408F917F916F915F914F913F912F910F9071
S1130C500BBE0F900FBE0F901F9018951F920F920E
S1130C600FB60F9211242F938F939F938091742921
S1130C709091752901968093742990937529809198
S1130C80742990917529873E9340B0F0109274298D
S1130C9010927529809176299091772901968093F5
S1130CA076299093772980917029909171290196E2
S1130CB080937029909371299F918F912F910F9018
S1130CC00FBE0F901F9018951F920F920FB60F92A0
S1130CD011240BB60F922F938F939F93EF93FF934F
S1130CE0CF93DF931F92CDB7DEB780916E29909199
S1130CF06F29019680936E2990936F299FB7F8947A
S1130D0080913F239FBFE0913822F09139228F3F99
S1130D10A9F18081E0913B23F0913C238083E09111
S1130D203B23F0913C23CF01019680933B23909386
S1130D303C238B53934269F19FB7F89480913F23EE
S1130D408F5F80933F239FBF80916E2990916F297D
S1130D508C32914021F410926E2910926F290F90D9
S1130D60DF91CF91FF91EF919F918F912F910F90F0
S1130D700BBE0F900FBE0F901F9018958081898332
S1130D8089818F5F8983809144238F5F809344237B
S1130D90DBCF8CE392E281839283CECF1F920F92BA
S1130DA00FB60F9211240BB60F922F938F939F932C
S1130DB0EF93FF93CF93DF931F92CDB7DEB79FB727
S1130DC0F894809123229FBFE0911C21F0911D2172
S1130DD08F3F51F18081E0911F22F0912022808386
S1130DE0E0911F22F0912022CF01019680931F22CF
S1130DF0909320228F51924211F19FB7F8948091E1
S1130E0023228F5F809323229FBF0F90DF91CF9186
S1130E10FF91EF919F918F912F910F900BBE0F90A7
S1130E200FBE0F901F9018958081898389818F5FF1
S1130E308983809128228F5F80932822E6CF80E2E5
S1130E4091E281839283D9CF0F931F93CF93DF9342
S1130E501F921F92CDB7DEB780914523882309F4F2
S1130E6047C0809129228823E1F188E092E08983B8
S1130E709A8380912A2290912B228C010A51110984
S1130E8000932A2210932B22409136224B3039F0C2
S1130E908C010B51110900932A2210932B222091CB
S1130EA0322230913322BE016F5F7F4F8091242222
S1130EB090912522ADD020912A2230912B222B5FB4
S1130EC03F4F20932A2230932B22813099F01092A5
S1130ED0292210922A2210922B221092362210924A
S1130EE02D220F900F90DF91CF911F910F910895B4
S1130EF06CDCB7CF8CE191E246DEE9CF8091292208
S1130F00882399F080914523811101C0089588E3D5
S1130F1092E239DE10924523109230221092462339
S1130F201092472310924923089570DDEBCFFB0103
S1130F3020813181A90148273695279540FF04C0B7
S1130F4098E0292794E83927208331838695A901DD
S1130F5048273695279540FF04C098E0292794E850
S1130F60392720833183682F6695A9014627C90153
S1130F709695879540FF04C028E0822724E89227AD
S1130F8080839183462F46959C01242796958795C7
S1130F9020FF04C028E0822724E8922780839183DD
S1130FA046959C0124279695879520FF04C028E048
S1130FB0822724E892278083918346959C012427E5
S1130FC09695879520FF04C028E0822724E892277D
S1130FD08083918346959C0124279695879520FFCD
S1130FE004C028E0822724E89227808391834695D1
S1130FF09C0124279695879520FF07C028E0822727
S113100024E89227808391830895808391830895AF
S11310105F926F927F928F929F92AF92BF92CF9284
S1131020DF92EF92FF920F931F93CF93DF931F9260
S11310301F92CDB7DEB77C016B01542E4901198292
S11310401A82009709F471C02115310509F46DC0A5
S11310508BE08417B0F4A8E34A1799F086E00F9068
S11310600F90DF91CF911F910F91FF90EF90DF9040
S1131070CF90BF90AF909F908F907F906F905F9034
S11310800895BE016F5F7F4F852D51DF0115110556
S113109009F45DC034015801A80CB91CBE016F5F8E
S11310A07F4FF30181913F0142DF6A147B04B1F762
S11310B089819A81D3019C9311968C930E5F1F4F63
S11310C080ECF701808351820115110509F44CC0AD
S11310D042E050E080E090E07DED6BED3CED10C02F
S11310E020832B3D21F14F5F5F4FD601ED91FC91A1
S11310F031974E175F07B8F4019680179107D8F41B
S1131100D4012D914D01F701E40FF51F203C41F767
S1131110608331834E5F5F4FD601ED91FC9131972F
S11311204E175F0748F383E09ACF85E098CF718329
S11311304E5F5F4FDACFCA010196F701E40FF51F46
S113114020EC2083F6018083918381E088CF89811C
S11311509A81D4019C9311968C9380ECF70180833F
S1131160518202E010E0B4CF83E090E042E050E02E
S1091170E4CFF894FFCF68
S9030000FC
