S00E00006770735F69622E73726563A2
S11300000C9446000C9458000C9458000C9458001E
S11300100C9458000C9458000C9458000C945800FC
S11300200C9458000C9458000C9458000C945800EC
S11300300C9493070C9458000C9458000C9458009A
S11300400C9458000C9458000C9458000C94C1075C
S11300500C9458000C9458000C9458000C945800BC
S11300600C9458000C9458000C9458000C945800AC
S11300700C9458000C9458000C94FB070C945800F2
S11300800C9458000C9458000C94580011241FBE72
S1130090CFEFD0E1DEBFCDBF2AE0A0E0B1E001C0E8
S11300A01D92A233B207E1F70E9407070C946B0874
S11300B00C94890797B1907F97B997B1982B97B90A
S11300C0369A349BFECF85B10895FF920F931F9308
S11300D0CF93DF93082F10E0E801CD5FDE4FF88067
S11300E00E945A00F801EE0FFF1FEE0FFF1FDF0101
S11300F0AF0DB11DA55FBE4F8C938F2D8F5F88838D
S1130100843008F01882E55FFE4F2181808190E001
S1130110A0E0B0E0820F911DA11DB11D2281820FCC
S1130120911DA11DB11D2381820F911DA11DB11D22
S113013022E0B695A795979587952A95D1F7DF91F3
S1130140CF911F910F91FF90089521E030E0062E8A
S113015002C0220F331F0A94E2F790E028233923C8
S113016002C0359527956A95E2F7822F0895FB0121
S113017098E020813181A90148273695279540FFD1
S113018004C048E0242744E834273183208386953B
S1130190915079F708954F925F926F927F928F9268
S11301A09F92AF92BF92CF92DF92EF92FF920F9302
S11301B01F93CF93DF9300D01F92CDB7DEB76C01AE
S11301C05B0179011A821982009709F45FC0211535
S11301D0310509F45BC04C3018F0483309F058C0BD
S11301E044244394512C4C0E5D1EB201842F4B8346
S11301F00E94B7003701600E711E470107C0B201AB
S1130200F40181914F014B830E94B7004B81861406
S11302109704A9F789819A81F701E00FF11F908370
S113022081830E5F1F4F80ECF60180834183D701E9
S113023042E050E02DED3BED6CED16C08D91803C1D
S113024019F43083618304C080838B3D21F42183BE
S11302504E5F5F4F02C04F5F5F4FF5018081918118
S1130260019748175907B0F4CD018E199F09F6017B
S1130270E40FF51F8017910708F380EC80834F5F2C
S11302805F4FF5015183408381E005C085E003C0E1
S113029086E001C083E00F900F900F90DF91CF9123
S11302A01F910F91FF90EF90DF90CF90BF90AF9090
S11302B09F908F907F906F905F904F9008959B01D7
S11302C0AC0160E070E18EE090E00E9449082150AA
S11302D0310941095109B901CA0108950F931F93C6
S11302E0072F182F292F33270093900069B988E02E
S11302F08AB986E0809395001F910F9108950F931A
S11303001F93072F182F292F3327009398006093EA
S1130310990080E180939A0086E080939D001F916C
S11303200F910895D49AD39ADB9A8B9A119A60E824
S113033075E280E090E00E945F010E946E0160E03F
S11303407CE281E090E00E945F010E947F011092B4
S1130350CA021092C90210924503109244031092EB
S1130360310A10928F0310928E031092EC011092B6
S1130370EB01109298031092CB091092810710920E
S113038097031092C8021092C70287B1806687B99A
S113039086B1876086B987B1807F87B9379A369AE4
S11303A01FBC8FE398E39BBD8ABD87B7806187BF7D
S11303B08EB588608EBD8EB585608EBD78940895A7
S11303C02F923F924F925F926F927F928F929F9261
S11303D0AF92BF92CF92DF92EF92FF920F931F934F
S11303E0CF93DF938BE2282E81E0382E90EC2CEC17
S11303F0822E29E0922E20E681E033E242E258E1A7
S113040063E07BECA72E72E0B72E78E7A6E4B3E0B6
S113041016E475C4E0919803EC7FE03309F4ABC2B1
S113042040F5E83109F4A8C090F4EC3009F46EC04A
S113043038F4E43009F445C0E83009F031C455C05B
S1130440E03109F476C0E43109F02AC47CC0E43216
S113045009F47AC138F4EC3109F4B0C0E03209F09F
S11304601FC415C1E83209F4CCC1EC3209F018C438
S113047025C2E83409F43EC390F4EC3309F400C314
S113048038F4E43309F4D4C2E83309F009C4E1C20E
S1130490E03409F406C3E43409F002C41AC3E435B1
S11304A009F466C338F4EC3409F43BC3E03509F0CD
S11304B0F7C348C3E83509F46CC3EC3509F0F0C35D
S11304C088C3E0918E03F0918F03E756FC4FE081DF
S11304D0E23009F0EEC31092CB09F0919803E09159
S11304E09803EC7FEF27E461D8C3E0918E03F09189
S11304F08F03E756FC4FE081E0939303F091980358
S1130500E0919803EC7FEF27EC6010C0E0918E033C
S1130510F0918F03E756FC4FE081E0939403F09150
S11305209803E0919803EC7FEF27E061E093980350
S1130530C5C3E0918E03F0918F03E756FC4FE08131
S1130540E09395033EC3E0918E03F0918F03E75649
S1130550FC4FE081F0919803E63409F0A3C3E091E5
S11305609803EC7FEF27E861E093980310932E0A39
S1130570E091CA09EB7FA0C3E0918E03F0918F0351
S1130580E756FC4FE081E03308F48AC3E33318F004
S1130590E93309F085C3F0919803E0919803EC7F67
S11305A0EF27EC61E0939803E0918E03F0918F03C1
S11305B0E756FC4FE081E0932F0ADACFE0918E03F7
S11305C0F0918F03E756FC4FE081E093300AF091FD
S11305D0CA09FB7FF093CA0900912F0A0033A9F4DA
S11305E0E03309F099C3F0919803E0919803EC7F0C
S11305F0EF27E06207C0F0919803E0919803EC7F45
S1130600EF27E462E093980339C0013351F4E833EF
S113061049F5F0919803E0919803EC7FEF27E862A5
S1130620F1CF023399F4E23309F07AC3F0919803DD
S1130630E0919803EC7FEF27EC62E4CFF09198030C
S1130640E0919803EC7FEF27E063DCCF093351F4AA
S1130650E93341F4F0919803E0919803EC7FEF279C
S1130660E860D0CF00919803E0919803EC7FE027F5
S1130670E460E0939803F460F093CA09109282074F
S113068010928307109284071092850717C3409035
S11306908207509083076090840770908507411407
S11306A051046104710421F410922C0A10922D0A51
S11306B0E0918E03F0918F03C6E4EC2EC3E0FC2E90
S11306C0E40CF51CE756FC4FC081F701C083C12C34
S11306D0D12C7601C394C420D520E620F720E091E4
S11306E08E03F0918F030CE2E02E0AE0F02EEC0C66
S11306F0FD1CE756FC4FE7010881E0810E270883C3
S1130700DFEF4D1A5D0A6D0A7D0A4092820750920E
S113071083076092840770928507E8E44E165104BB
S11307206104710409F0CAC210928207109283070F
S11307301092840710928507F0919803E091980332
S1130740EC7FEF27E463F2CE40908207509083075A
S1130750609084077090850741145104610471040A
S113076021F410922C0A10922D0AE0918E03F0913C
S11307708F03CDEEEC2EC1E0FC2EE40CF51CE75605
S1130780FC4FE081E701E883C12CD12C7601C394AE
S1130790C420D520E620F720E0918E03F0918F034A
S11307A00CE2E02E0AE0F02EEC0CFD1CE756FC4FA8
S11307B0E7010881E0810E270883DFEF4D1A5D0A07
S11307C06D0A7D0A409282075092830760928407E3
S11307D070928507E8ED4E1651046104710409F026
S11307E06DC21092820710928307109284071092B0
S11307F08507F0919803E0919803EC7FEF27EC6371
S113080095CE409082075090830760908407709043
S11308108507411451046104710421F410922C0AD7
S113082010922D0AE0918E03F0918F03CBE2EC2E0F
S1130830C1E0FC2EE40CF51CE756FC4FE081E70117
S1130840E883C12CD12C7601C394C420D520E620A2
S1130850F720E0918E03F0918F030CE2E02E0AE082
S1130860F02EEC0CFD1CE756FC4FE7010881E081FB
S11308700E270883DFEF4D1A5D0A6D0A7D0A409248
S11308808207509283076092840770928507E0EC98
S11308904E1651046104710409F010C210928207CB
S11308A0109283071092840710928507F0919803A1
S11308B0E0919803EC7FEF27E46438CE4090820700
S11308C05090830760908407709085074114510409
S11308D06104710421F410922C0A10922D0AE09103
S11308E08E03F0918F03CBECEC2EC2E0FC2EE40CD3
S11308F0F51CE756FC4FE081E701E883C12CD12CBD
S11309007601C394C420D520E620F720E0918E031D
S1130910F0918F030CE2E02E0AE0F02EEC0CFD1CAB
S1130920E756FC4FE7010881E0810E270883DFEFDB
S11309304D1A5D0A6D0A7D0A409282075092830720
S11309406092840770928507E8E74E1651046104AB
S1130950710409F0B3C110928207109283071092B8
S1130960840710928507F0919803E0919803EC7F37
S1130970EF27EC64DBCD40908207509083076090B2
S1130980840770908507411451046104710421F4B3
S113099010922C0A10922D0AE0918E03F0918F038D
S11309A0CCECEC2EC9E0FC2EE40CF51CE756FC4F15
S11309B0E081E701E883C12CD12C7601C394C420E3
S11309C0D520E620F720E0918E03F0918F030CE20E
S11309D0E02E0AE0F02EEC0CFD1CE756FC4FE7017C
S11309E00881E0810E270883DFEF4D1A5D0A6D0A46
S11309F07D0A409282075092830760928407709226
S1130A008507E0E64E1651046104710409F056C1ED
S1130A101092820710928307109284071092850720
S1130A20F0919803E0919803EC7FEF27E4657ECD85
S1130A30E0918E03F0918F03E756FC4FE081E09341
S1130A40C502F0919803E0919803EC7FEF27E863E7
S1130A506DCDE0918E03F0918F03E756FC4FE0815A
S1130A60E093C6020091C502F0912C0A0F1305C051
S1130A70F0912D0AEF1709F4A4C0ED01E8E49EC03B
S1130A80E0918E03F0918F03E756FC4FE081E093F1
S1130A90C502F0919803E0919803EC7FEF27E0649E
S1130AA045CDE0918E03F0918F03E756FC4FE08132
S1130AB0E093C6020091C502F0912C0A0F1305C001
S1130AC0F0912D0AEF1709F47CC0CDEED1E0E8EDEA
S1130AD075C0E0918E03F0918F03E756FC4FE081DF
S1130AE0E093C502F0919803E0919803EC7FEF271F
S1130AF0E8641CCDE0918E03F0918F03E756FC4F20
S1130B00E081E093C6020091C502F0912C0A0F1314
S1130B1005C0F0912D0AEF1709F453C0E101E92F44
S1130B204DC0E0918E03F0918F03E756FC4FE081B6
S1130B30E093C502F0919803E0919803EC7FEF27CE
S1130B40E065F4CCE0918E03F0918F03E756FC4FFF
S1130B50E081E093C6020091C502F0912C0A0F13C4
S1130B6004C0F0912D0AEF1761F1E501E72F26C0CB
S1130B70E0918E03F0918F03E756FC4FE081E09300
S1130B80C502F0919803E0919803EC7FEF27E865A4
S1130B90CDCCE0918E03F0918F03E756FC4FE081BA
S1130BA0E093C6020091C502F0912C0A0F1304C011
S1130BB0F0912D0AEF1729F0E401E22F1992EA953A
S1130BC0E9F7F0919803E0919803EC7FEF27EC6547
S1130BD0ADCCE0918E03F0918F03E756FC4FE0819A
S1130BE0E33009F05DC0E0912F0AF091300AE03360
S1130BF061F4F03351F410920001E091CA09E77FE7
S1130C00E093CA098093810741C0F33369F4E03368
S1130C1009F08AC0E0910001E11102C06093000173
S1130C20E091CA09EF7E0DC0E13371F4F833C1F5E8
S1130C30E0910001E33011F450930001E091CA09FE
S1130C40EF7DE093CA0922C0E233D9F4F23309F00C
S1130C506EC0E0910001E83111F440930001E0918D
S1130C60CA09EF7BEECFE0910001E23211F4309338
S1130C700001E091CA09EF77E093CA098093CB0998
S1130C8005C0E93369F4F93309F00AC0F091980317
S1130C90E0919803EC7FEF27E460E093980368CC3D
S1130CA0F0919803E0919803EC7FEF27E460E093E0
S1130CB09803E091CA09E460E093CA09E091000155
S1130CC0E33249F41092C8021092C702E091CA09B3
S1130CD0EE7FE093CA09E0918E03F0918F03319681
S1130CE0E83EF34030F4E0918E03F0918F033196A7
S1130CF002C0E0E0F0E0F0938F03E0938E03E09015
S1130D008E03F0908F03E0910101F0910201EE1641
S1130D10FF0609F07FCB13C0E33309F0A3CC6BCCFF
S1130D20E33309F09FCC8ACCE13329F4B9CFF33310
S1130D3009F0B6CF98CFE23309F0A3CF94CFDF9177
S1130D40CF911F910F91FF90EF90DF90CF90BF90C4
S1130D50AF909F908F907F906F905F904F903F9057
S1130D602F90089589B363E00E94A5009091CA0969
S1130D70882311F09D7F01C092609093CA09089561
S1130D808091C7029091C8022091CA098C32914087
S1130D9040F080E395E79093C8028093C7022160F6
S1130DA001C02E7F2093CA0908950F931F93CF93F8
S1130DB0DF9300D000D0CDB7DEB784EF91E0A0E0A0
S1130DC0B0E089839A83AB83BC8300E510E02AE713
S1130DD039E043E0BE016F5F7F4F86E897E00E94F1
S1130DE0CB00813059F41092CA021092C902898151
S1130DF09A819093450380934403559A0F900F90E2
S1130E000F900F90DF91CF911F910F9108950E9441
S1130E10920180919A00806880939A00909198033F
S1130E20809198038C7F892784608093980312E0D3
S1130E3007E0C1E0D8E48091310A81FF05C08091C8
S1130E40310A81278093310A80918107811104C07E
S1130E5080919703882399F10E94B2060E94C006EC
S1130E608091CA0980937A09E0E9F3E0ABE7B9E03D
S1130E70802F01900D928A95E1F780919703882342
S1130E8041F0E2E8F9E0DF018D2F1D928A95E9F740
S1130E9009C0E6E4F3E0A2E8B9E08D2F01900D92D9
S1130EA08A95E1F710928107109297030E94D50664
S1130EB08091CA09886F8093CA09C09343038091C3
S1130EC0980380FF0FC0809198038C278093980328
S1130ED08091EB019091EC019093020180930101C8
S1130EE00E94E00180914303882309F4A4CF109267
S1130EF0430380E00E9465008093900382E00E9497
S1130F0065008093910381E00E94650080939203C1
S1130F1092CF1F920F920FB60F9211240F900FBE13
S1130F200F901F9018951F920F920FB60F921124D5
S1130F305F936F937F938F939F93AF93BF938091AE
S1130F40C7029091C80201969093C8028093C70289
S1130F508091C7029091C80263E070E00E94350856
S1130F60029719F481E080939703BF91AF919F9109
S1130F708F917F916F915F910F900FBE0F901F9093
S1130F8018951F920F920FB60F9211240BB60F9261
S1130F902F933F938F939F93EF93FF932091C902D5
S1130FA03091CA0280914403909145032817390770
S1130FB079F08091C9029091CA02FC01EA57F84F76
S1130FC020812CB901969093CA028093C90206C06D
S1130FD055988091310A82608093310AFF91EF9194
S1130FE09F918F913F912F910F900BBE0F900FBE49
S1130FF00F901F9018951F920F920FB60F92112405
S11310000BB60F922F938F939F93EF93FF93E091DF
S1131010EB01F091EC0180919C00E756FC4F80833A
S11310208091EB019091EC010196883E934030F45D
S11310308091EB019091EC01019602C080E090E078
S11310409093EC018093EB018091980381608093ED
S11310509803FF91EF919F918F912F910F900BBE69
S11310600F900FBE0F901F901895AA1BBB1B51E148
S113107007C0AA1FBB1FA617B70710F0A61BB70B04
S1131080881F991F5A95A9F780959095BC01CD01A9
S11310900895A1E21A2EAA1BBB1BFD010DC0AA1FB5
S11310A0BB1FEE1FFF1FA217B307E407F50720F0CD
S11310B0A21BB30BE40BF50B661F771F881F991F48
S11310C01A9469F760957095809590959B01AC0191
S10D10D0BD01CF010895F894FFCF8D
S9030000FC
