S011000043444849425F4D43552E7372656375
S1130000F3C000000C946E0F02C1000000C1000098
S1130010FEC00000FCC00000FAC00000F8C00000F0
S1130020F6C00000F4C00000F2C00000F0C0000000
S1130030EEC00000ECC000000C94A00FE8C000006B
S1130040E6C00000E4C00000E2C00000E0C0000020
S1130050DEC00000DCC00000DAC00000D8C0000030
S1130060D6C000000C94DF0FD2C00000D0C0000046
S11300700C943010CCC00000CAC00000C8C00000FE
S1130080C6C00000C4C00000C2C00000C0C0000060
S1130090BEC00000BCC00000BAC00000B8C0000070
S11300A0B6C00000B4C00000B2C00000B0C0000080
S11300B0AEC00000ACC00000AAC00000A8C0000090
S11300C0A6C00000A4C00000A2C00000A0C00000A0
S11300D09EC000009CC000009AC0000098C00000B0
S11300E096C0000094C000000C94D21090C0000090
S11300F08EC000000C9481108AC0000088C00000EB
S113010086C0000084C0000082C0000080C00000DF
S11301107EC000007CC000007AC0000078C00000EF
S113012076C0000074C0000072C0000070C00000FF
S11301306EC000006CC000006AC0000068C000000F
S113014066C0000064C0000062C0000060C000001F
S11301505EC000005CC000005AC0000058C000002F
S11301600C94231154C0000052C0000050C0000081
S11301704EC000004CC000004AC0000048C000004F
S113018046C0000044C0000042C0000040C000005F
S11301903EC000003CC000003AC0000038C000006F
S11301A036C0000034C0000032C0000030C000007F
S11301B02EC000002CC000002AC0000028C000008F
S11301C026C0000024C0000022C0000020C000009F
S11301D01EC000001CC000001AC0000018C00000AF
S11301E016C0000014C0000011241FBECFEFDFE3CF
S11301F0DEBFCDBF00E00CBF2CE2A0E0B0E201C046
S11302001D92AA3BB207E1F702D70C94A417F8CECB
S1130210CF93DF9300D01F92CDB7DEB789839A8343
S11302206B837C8389819A81FC018381982F9F7CD5
S11302308B81292F282B89819A81FC012383249681
S1130240CDBFDEBFDF91CF910895CF93DF931F928F
S11302501F92CDB7DEB789839A8389819A810097EB
S113026009F474C189819A81803C910529F460E183
S113027080E090E0A8D36AC189819A81811524E045
S1130280920729F464E080E090E09DD35FC1898106
S11302909A81803821E0920729F462E080E090E0BE
S11302A092D354C189819A81811521E0920729F45E
S11302B061E080E090E087D349C189819A818038E8
S11302C023E0920729F461E081E090E07CD33EC111
S11302D089819A81803923E0920729F461E082E0E0
S11302E090E071D333C189819A81811522E092070C
S11302F029F462E081E090E066D328C189819A8183
S1130300803422E0920729F462E082E090E05BD33B
S11303101DC189819A81803223E0920729F464E027
S113032082E090E050D312C189819A81811528E03E
S1130330920729F461E083E090E045D307C1898105
S11303409A81811529E0920729F461E084E090E024
S11303503AD3FCC089819A8181152AE0920729F455
S113036061E085E090E02FD3F1C089819A81811505
S11303702BE0920729F461E086E090E024D3E6C004
S113038089819A81803428E0920729F462E083E02D
S113039090E019D3DBC089819A81803429E09207E7
S11303A029F462E084E090E00ED3D0C089819A8180
S11303B080342AE0920729F462E085E090E003D3D8
S11303C0C5C089819A81803928E0920729F464E0C4
S11303D083E090E0F8D2BAC089819A81803929E01B
S11303E0920729F464E084E090E0EDD2AFC0898103
S11303F09A8180392AE0920729F464E085E090E04C
S1130400E2D2A4C089819A8180392BE0920729F431
S113041064E086E090E0D7D299C089819A81803CDB
S113042028E0920729F468E083E090E0CCD28EC003
S113043089819A81803C29E0920729F468E084E06C
S113044090E0C1D283C089819A81803C2AE09207DE
S113045029F468E085E090E0B6D278C089819A8179
S1130460803C2BE0920729F468E086E090E0ABD270
S11304706DC089819A81803A28E0920729F460E16D
S113048083E090E0A0D262C089819A81803A29E019
S1130490920729F460E184E090E095D257C0898105
S11304A09A81803A2AE0920729F460E185E090E09D
S11304B08AD24CC089819A81803A2BE0920729F430
S11304C060E186E090E07FD241C089819A81803BDF
S11304D028E0920729F460E283E090E074D236C009
S11304E089819A81803B29E0920729F460E284E0C3
S11304F090E069D22BC089819A81803B2AE09207DF
S113050029F460E285E090E05ED220C089819A817E
S1130510803B2BE0920729F460E286E090E053D21E
S113052015C089819A81803824E0920729F460E417
S113053083E090E048D20AC089819A81803A24E01D
S1130540920721F460E485E090E03DD20F900F9093
S1130550DF91CF910895CF93DF93CDB7DEB72D9779
S1130560CDBFDEBF8A879B876C877D878C859D8501
S1130570FC01848195818D839E838C859D85FC01FE
S1130580868197818F8398878C859D85FC018085E2
S113059089878C859D85FC0180819181A281B381AD
S11305A089839A83AB83BC838A859B85803AF8E0F0
S11305B09F0729F460E183E090E005D24CC08A856E
S11305C09B85803B28E0920729F460E283E090E079
S11305D0FAD141C08A859B85803AE9E09E0729F4D7
S11305E060E184E090E0EFD136C08A859B85803B52
S11305F0F9E09F0729F460E284E090E0E4D12BC0A5
S11306008A859B85803A2AE0920729F460E185E097
S113061090E0D9D120C08A859B85803BEAE09E0783
S113062029F460E285E090E0CED115C08A859B85EF
S1130630803AFBE09F0729F460E186E090E0C3D1B3
S11306400AC08A859B85803B2BE0920721F460E2F7
S113065086E090E0B8D18A859B859E012F5F3F4F4D
S1130660B901E4D22D96CDBFDEBFDF91CF910895BD
S1130670CF93DF93CDB7DEB7C8D00E94E80B0E94BA
S1130680B80C37D007D1D7D02AD1DF91CF910895B4
S1130690CF93DF93CDB7DEB781E08093B92C80E5AB
S11306A090E020ECFC01228380E590E020E530E03E
S11306B0F90120812860FC01208380E590E020E599
S11306C030E0F90120812260FC01208304C061E054
S11306D080E490E09BD180E590E0FC018181882F4B
S11306E090E082709927009791F31AD1DF91CF910E
S11306F00895CF93DF93CDB7DEB72997CDBFDEBF83
S113070083E090E08D839E831F821886198680E0A3
S113071092ECA1E0B0E089839A83AB83BC8380919F
S11307207021909171219E012F5F3F4FB90113DF1A
S1130730809170219091712160E170E069DD80E029
S113074092ECA1E0B0E089839A83AB83BC8380916F
S11307500120909102209E012F5F3F4FB901FBDEE3
S1130760809101209091022060E170E051DD80E0F1
S113077092ECA1E0B0E089839A83AB83BC8380913F
S11307806727909168279E012F5F3F4FB901E3DEF1
S1130790809167279091682760E170E039DD80E0FF
S11307A092ECA1E0B0E089839A83AB83BC8380910F
S11307B04728909148289E012F5F3F4FB901CBDE17
S11307C0809147289091482860E170E021DD80E025
S11307D091EEA0E0B0E089839A83AB83BC838091DF
S11307E07A2490917B249E012F5F3F4FB901B3DEA1
S11307F080917A2490917B2460E170E009DD299650
S1130800CDBFDEBFDF91CF910895CF93DF93CDB7F6
S1130810DEB780EA90E023E0FC01228380EA90E0E6
S113082020EA30E0F90122812068FC0122837894D7
S1130830DF91CF910895CF93DF93CDB7DEB780E4F6
S113084096E020E3FC01218380E496E020E2FC01B1
S1130850258380E496E028E0FC01218380E496E08F
S113086020E8FC01218380E696E028E0FC01218356
S113087080E696E020E8FC01218380E896E028E009
S1130880FC01218380E896E020E8FC012183DF91CC
S1130890CF910895CF93DF93CDB7DEB780E098E092
S11308A0D4DC80E098E020E038E0F90126812C7F58
S11308B02160FC01268380E098E02DE730E0FC0114
S11308C026A337A380E098E020E038E0F9012081F6
S11308D0207F2660FC012083DF91CF910895CF9380
S11308E0DF93CDB7DEB78CE390E080933628909306
S11308F037288CE390E0809380299093812981E0CC
S113090080936F2181E48093822983E480938329F7
S11309108BE48093842910920020DF91CF91089575
S1130920CF93DF93CDB7DEB780E590E0FC01818102
S1130930882F90E088709927009719F180E590E05E
S113094022ECFC01258380E590E020E530E0F9010C
S113095020812061FC012083000080E590E0FC01FF
S11309608181882F90E0807199270097B1F364E02A
S113097080E490E04BD061E083E590E047D01092B2
S1130980B92CDF91CF910895CF93DF931F92CDB708
S1130990DEB78FE390E0FC0180818983F89489813C
S11309A00F90DF91CF910895CF93DF931F92CDB72E
S11309B0DEB789838FE390E02981FC0120830F90C7
S11309C0DF91CF910895CF93DF9300D01F92CDB7DD
S11309D0DEB78A839B836C83D7DF89838A819B817B
S11309E080599F4F2A813B8120593F4FF901208133
S11309F0322F2C8120952323FC0120838981D4DF8D
S1130A002496CDBFDEBFDF91CF9108951BBEFC01BC
S1130A1028ED24BF60830895CF93DF931F921F9224
S1130A20CDB7DEB789839A8389819A81FC01848159
S1130A30282F206189819A81FC0124830F900F90D3
S1130A40DF91CF910895CF93DF93CDB7DEB727978A
S1130A50CDBFDEBF89839A836B837C834D835E83A2
S1130A602F839B818D81982B8F81882311F088E0BF
S1130A7001C080E0292F282B89819A81FC012583DC
S1130A802796CDBFDEBFDF91CF910895CF93DF933B
S1130A901F921F92CDB7DEB789839A8389819A8189
S1130AA0FC018481282F286089819A81FC01248398
S1130AB00F900F90DF91CF910895CF93DF9300D0E3
S1130AC01F92CDB7DEB789839A836B837C83898138
S1130AD09A81FC018581982F9F738B81292F282B64
S1130AE089819A81FC0125832496CDBFDEBFDF91E5
S1130AF0CF910895CF93DF93CDB7DEB780E894E824
S1130B00AEE1B0E0BC01CD01DF91CF910895CF9368
S1130B10DF931F92CDB7DEB71982ECDFDC01CB0186
S1130B202981222F30E0022E04C0B695A79597950F
S1130B3087950A94D2F7BC01CD010F90DF91CF9134
S1130B400895CF93DF93CDB7DEB7E1DFDC01CB01AE
S1130B50BC01CD01DF91CF910895CF93DF93CDB741
S1130B60DEB7EFDFDC01CB01BC01CD01DF91CF911A
S1130B700895CF93DF931F921F92CDB7DEB7898379
S1130B809A8389819A81803A28E0920721F460E16E
S1130B9083E090E018DF89819A81803B28E0920706
S1130BA021F460E283E090E00EDF89819A81803A4B
S1130BB029E0920721F460E184E090E004DF898178
S1130BC09A81803B29E0920721F460E284E090E07E
S1130BD0FADE89819A81803A2AE0920721F460E161
S1130BE085E090E0F0DE89819A81803B2AE09207DB
S1130BF021F460E285E090E0E6DE89819A81803A22
S1130C002BE0920721F460E186E090E0DCDE89814C
S1130C109A81803B2BE0920721F460E286E090E029
S1130C20D2DE0F900F90DF91CF9108950F931F9311
S1130C30CF93DF9300D01F92CDB7DEB789839A8319
S1130C406B837C8389819A8194DF89819A8160E0B6
S1130C5070E033DF8B819C81FC0120858B819C813A
S1130C60FC01468157818B819C81FC0164817581E3
S1130C7089819A81E8DE71DF9B01AC018B819C81C3
S1130C80FC0180819181A281B381E981FA8189018A
S1130C909A01AC01BD01CF010ED089819A81F6DEA3
S1130CA089819A81B9DE2496CDBFDEBFDF91CF91D1
S1130CB01F910F910895EF92FF920F931F93CF937B
S1130CC0DF93CDB7DEB76F97CDBFDEBF8E8B9F8B23
S1130CD0488F598F6A8F7B8F0C8F1D8F2E8F3F8F7C
S1130CE08C8D9D8DAE8DBF8D689412F8B695A795A9
S1130CF0979587951694D1F78A879B87AC87BD878C
S1130D008C8D9D8DAE8DBF8D072E76E1B695A79502
S1130D10979587957A95D1F7702D8E839F83A887B1
S1130D20B9878E899F89FC018481882F90E0847023
S1130D3099270097C1F48A859B85AC85BD85B695B6
S1130D40A795979587958A879B87AC87BD878E8162
S1130D509F81A885B985B695A795979587958E8324
S1130D609F83A887B987288D398D4A8D5B8D8A85A5
S1130D709B85AC85BD8582179307A407B50768F0EA
S1130D80288D398D4A8D5B8D8E819F81A885B9858B
S1130D90281739074A075B0710F480E02EC18E89B3
S1130DA09F89FC018481882F90E0847099270097A3
S1130DB061F4888D998DAA8DBB8D880F991FAA1F08
S1130DC0BB1F888F998FAA8FBB8F8FEF90E0A0E015
S1130DD0B0E08A839B83AC83BD838C8D9D8DAE8D67
S1130DE0BF8D288D398D4A8D5B8DBC01CD010E944C
S1130DF079172E873F87488B598B89EF898328C0C1
S1130E002E853F85488959898A819B81AC81BD8122
S1130E10281739074A075B07F8F08A819B81AC8160
S1130E20BD81880F991FAA1FBB1F8A839B83AC8334
S1130E30BD8389818D3F4CF48A819B81AC81BD81C6
S1130E4081608A839B83AC83BD8389818F5F89831F
S1130E5089818730ACF201C00000898188230CF0BD
S1130E6088C0888D998DAA8DBB8D880F991FAA1F64
S1130E70BB1F880F991FAA1FBB1F880F991FAA1F8A
S1130E80BB1F2C8D3D8D4E8D5F8D79018A01E81A33
S1130E90F90A0A0B1B0BD801C7018C8F9D8FAE8FEB
S1130EA0BF8F89818E3F84F58981992787FD90952D
S1130EB02DEF3FEF281B390B8C8D9D8DAE8DBF8D93
S1130EC07C018D0104C0EE0CFF1C001F111F2A952C
S1130ED0D2F7A8019701888D998DAA8DBB8DB695FF
S1130EE0A79597958795820F931FA41FB51F288DEB
S1130EF0398D4A8D5B8DBC01CD010E9479172A8BF7
S1130F003B8B4C8B5D8B6EC08981992787FD9095B7
S1130F109C012D5F3F4F888D998DAA8DBB8D04C098
S1130F20880F991FAA1FBB1F2A95D2F7888F998F04
S1130F30AA8FBB8F888D998DAA8DBB8D9C01AD0125
S1130F4056954795379527958C8D9D8DAE8DBF8D84
S1130F50820F931FA41FB51F288D398D4A8D5B8D79
S1130F60BC01CD010E9479172A8B3B8B4C8B5D8B86
S1130F7039C08981992787FD90959C012D5F3F4F4A
S1130F80888D998DAA8DBB8D04C0880F991FAA1FC7
S1130F90BB1F2A95D2F7888F998FAA8FBB8F888D14
S1130FA0998DAA8DBB8D9C01AD01569547953795BA
S1130FB027958C8D9D8DAE8DBF8D820F931FA41FA1
S1130FC0B51F288D398D4A8D5B8DBC01CD010E94E2
S1130FD07917DA01C9010197A109B1098A8B9B8BA1
S1130FE0AC8BBD8B8E899F8921E0FC0126838E8981
S1130FF09F8920EDFC01278381E06F96CDBFDEBF82
S1131000DF91CF911F910F91FF90EF900895CF93AF
S1131010DF93CDB7DEB72CDB9ED680E090E0DF9186
S1131020CF910895CF93DF931F921F92CDB7DEB770
S113103089839A8380E091E020E031E0F901208106
S1131040322F3C7F2981232BFC0120830F900F90AA
S1131050DF91CF910895CF93DF931F921F92CDB765
S1131060DEB789839A8389819A81FC018081282F44
S1131070206889819A81FC0120830F900F90DF9171
S1131080CF9108958F929F92AF92BF92CF92DF92A9
S1131090EF92FF920F931F93CF93DF93CDB7DEB7F9
S11310A06297CDBFDEBF89839A836B837C834D8334
S11310B05E832F83388709871A87EB86FC86CD8663
S11310C0DE86AF86B88A898A9A8A8B819C81282F8A
S11310D089819A81FC0120878B819C81892F9927A2
S11310E0282F89819A81FC01218789819A81FC01B9
S11310F0128689859A85282F89819A81FC01248703
S113110089859A85892F9927282F89819A81FC01BD
S1131110258789819A81FC0116869D818F81982B70
S11311208B85982B8D85292F282B89819A81FC0109
S1131130228389819A812F853889FC012483358310
S113114089819A81FC018081982F9C7D8989982BC3
S11311508BA1882311F080E201C080E0292F282B85
S113116089819A81FC0120838BA1882329F08981BC
S11311709A812AA1FC0126836296CDBFDEBFDF914E
S1131180CF911F910F91FF90EF90DF90CF90BF9080
S1131190AF909F908F900895CF93DF931F921F92EB
S11311A0CDB7DEB789839A8389819A81FC018081D6
S11311B0282F246089819A81FC0120830F900F904D
S11311C0DF91CF910895CF93DF9300D0CDB7DEB7F1
S11311D089839A836B8389819A812B81FC01238380
S11311E02396CDBFDEBFDF91CF910895CF93DF93D8
S11311F01F921F92CDB7DEB789839A8389819A8122
S1131200009709F474C189819A81803C910529F47D
S113121060E180E090E0D7DB6AC189819A81811521
S113122024E0920729F464E080E090E0CCDB5FC125
S113123089819A81803821E0920729F462E080E074
S113124090E0C1DB54C189819A81811521E0920724
S113125029F461E080E090E0B6DB49C189819A819C
S1131260803823E0920729F461E081E090E0ABDB71
S11312703EC189819A81803923E0920729F461E093
S113128082E090E0A0DB33C189819A81811522E05C
S1131290920729F462E081E090E095DB28C189811E
S11312A09A81803422E0920729F462E082E090E09F
S11312B08ADB1DC189819A81803223E0920729F457
S11312C064E082E090E07FDB12C189819A8181151C
S11312D028E0920729F461E083E090E074DB07C121
S11312E089819A81811529E0920729F461E084E0DB
S11312F090E069DBFCC089819A8181152AE092071C
S113130029F461E085E090E05EDBF1C089819A8197
S113131081152BE0920729F461E086E090E053DB2D
S1131320E6C089819A81803428E0920729F462E03A
S113133083E090E048DBDBC089819A81803429E036
S1131340920729F462E084E090E03DDBD0C089811B
S11313509A8180342AE0920729F462E085E090E0E3
S113136032DBC5C089819A81803928E0920729F44B
S113137064E083E090E027DBBAC089819A818039F8
S113138029E0920729F464E084E090E01CDBAFC01C
S113139089819A8180392AE0920729F464E085E002
S11313A090E011DBA4C089819A8180392BE09207F7
S11313B029F464E086E090E006DB99C089819A8193
S11313C0803C28E0920729F468E083E090E0FBDAAF
S11313D08EC089819A81803C29E0920729F468E0D3
S11313E084E090E0F0DA83C089819A81803C2AE02D
S11313F0920729F468E085E090E0E5DA78C0898115
S11314009A81803C2BE0920729F468E086E090E022
S1131410DADA6DC089819A81803A28E0920729F44A
S113142060E183E090E0CFDA62C089819A81803AFA
S113143029E0920729F460E184E090E0C4DA57C01F
S113144089819A81803A2AE0920729F460E185E053
S113145090E0B9DA4CC089819A81803A2BE09207F6
S113146029F460E186E090E0AEDA41C089819A8196
S1131470803B28E0920729F460E283E090E0A3DA5D
S113148036C089819A81803B29E0920729F460E281
S113149084E090E098DA2BC089819A81803B2AE02D
S11314A0920729F460E285E090E08DDA20C089811A
S11314B09A81803B2BE0920729F460E286E090E079
S11314C082DA15C089819A81803824E0920729F450
S11314D060E483E090E077DA0AC089819A81803AF7
S11314E024E0920721F460E485E090E06CDA0F9048
S11314F00F90DF91CF910895CF93DF93CDB7DEB7EF
S1131500F89481E0DF91CF910895CF93DF931F92F8
S11315101F92CDB7DEB789839A838FE390E0298148
S11315203A81F9012081FC0120830F900F90DF9113
S1131530CF910895CF93DF9300D01F92CDB7DEB73C
S11315408B839C838FE390E0FC0180818A83D4DFCA
S1131550898319C02B813C818B819C81805C9F4F46
S1131560FC01208331832B813C818B819C818E5BA8
S11315709F4FFC01208331838B819C818C5B9F4F27
S1131580FC01108219828981882321F7CE010296F9
S1131590BCDF2496CDBFDEBFDF91CF910895CF93FA
S11315A0DF9300D01F92CDB7DEB78B839C838FE38C
S11315B090E0FC0180818A839FDF898313C02B81A3
S11315C03C818B819C81FC01228733872B813C8168
S11315D08B819C81FC01248735878B819C81FC0154
S11315E0168619828981882351F7CE0102968DDFF0
S11315F02496CDBFDEBFDF91CF910895CF93DF93C3
S1131600CDB7DEB72597CDBFDEBF8C839D838FE337
S113161090E0FC0180818B836FDF8A8308C08C811A
S11316209D818C5B9F4FFC01808189831A828A8112
S11316308823A9F7CE01039668DF89812596CDBF5B
S1131640DEBFDF91CF910895CF93DF931F921F9256
S1131650CDB7DEB789839A8389819A81CFDF982FAA
S113166081E0992309F080E00F900F90DF91CF91F2
S11316700895CF93DF93CDB7DEB72597CDBFDEBFF7
S11316808B839C836D838B819C81FC0182859385F4
S11316902D81FC0120838B819C81FC0182859385B3
S11316A09C012F5F3F4F8B819C81FC0122873387F4
S11316B08B819C81FC01228533858B819C810A96D8
S11316C02817390739F42B813C818B819C81FC01DB
S11316D0228733878FE390E0FC0180818A830CDFCB
S11316E089830BC08B819C81FC018685282F2F5F09
S11316F08B819C81FC01268719828981882391F73B
S1131700CE01029602DF2596CDBFDEBFDF91CF91D9
S11317100895CF93DF93CDB7DEB72597CDBFDEBF56
S11317208C839D838C819D818E5B9F4FFC01808186
S11317309181FC0180818A838C819D818E5B9F4F86
S1131740FC01808191819C012F5F3F4F8C819D81A1
S11317508E5B9F4FFC01208331838C819D818E5B46
S11317609F4FFC01208131818C819D81805C9F4F42
S11317702817390749F42C813D818C819D818E5B2A
S11317809F4FFC01208331838FE390E0FC01808133
S11317908B83B2DE89830FC08C819D818C5B9F4FCC
S11317A0FC018081282F21508C819D818C5B9F4F6F
S11317B0FC01208319828981882371F7CE01039665
S11317C0A4DE8A812596CDBFDEBFDF91CF91089537
S11317D0CF93DF93CDB7DEB78BE498E2ABDE88E33B
S11317E098E2DDDE80EA9AE08093472890934828C7
S11317F080E191E08093492890934A2882ED97E212
S113180080939A2890939B2884E690E080939C2868
S113181090939D288FE595E280939E2890939F282E
S113182088E092E08093A0289093A1288BE0809395
S1131830A82884E791E27EDE80EA98E08093702114
S11318409093712180E291E08093722190937321AF
S11318508AEE93E28093C3219093C4218EE690E0B4
S11318608093C5219093C62187EE9BE28093C72184
S11318709093C82188EC90E08093C9219093CA2169
S113188081E08093D12185E090E254DE80EB98E002
S113189080930120909302208DE89BE28093542052
S11318A0909355208AE590E080935620909357209A
S11318B086E0809362208BE697E23CDE80E595E249
S11318C06EDE80EB9AE0809367279093682780E32D
S11318D091E08093692790936A278CED91E280933D
S11318E0BA279093BB278EE091E08093BC27909316
S11318F0BD2785E899E28093BE279093BF2788E0AF
S113190092E08093C0279093C12785E08093C827F5
S11319108EE794E20FDE80EA99E080937A24909334
S11319207B2480E491E080937C2490937D248AEE50
S113193092E28093CD249093CE2480E091E0809332
S1131940CF249093D0248FE690E28093D124909377
S1131950D22480E091E08093D3249093D42488E32C
S11319608093DB248AE080934625DF91CF9108950C
S1131970CF93DF93CDB7DEB780E091E037DC80E032
S113198091E020E031E0F90120812068FC0120830E
S113199081E090E047DB8091492890914A28FCDB64
S11319A08091492890914A286CE80DDC809172213D
S11319B090917321F1DB80917221909173216CE4F9
S11319C002DC8091692790916A27E6DB8091692780
S11319D090916A276FE8F7DB80917C2490917D24B5
S11319E0DBDB80917C2490917D246CE6ECDBDF9141
S11319F0CF910895CF93DF9300D0CDB7DEB78A831C
S1131A009B83D9C08A819B81865B9F4FFC01808127
S1131A1091810097D9F48A819B818B5A9F4FFC0155
S1131A20408151818A819B818D5A9F4FFC01208185
S1131A3031818A819B81875B9F4FB901B4D78A81A9
S1131A409B81845A9F4FFC01108211828A819B8161
S1131A5004965FDE89838A819B81875B9F4F6981BE
S1131A600E943016282F8A819B818D599F4FFC013B
S1131A7020838A819B818D599F4FFC018081882F0F
S1131A8090E083709927009721F58A819B818D5975
S1131A909F4FFC018081882F90E0847099270097E4
S1131AA0C1F48A819B818D599F4FFC018081882FCD
S1131AB090E086709927009761F48A819B818D5903
S1131AC09F4FFC018081882F90E0877099270097B1
S1131AD0C1F08A819B8189599F4FFC01808191814A
S1131AE09C012F5F3F4F8A819B8189599F4FFC0145
S1131AF0208331838A819B81865B9F4FFC01108206
S1131B0011828A819B818D599F4FFC018081813094
S1131B1009F051C08A819B81805B9F4FFC01208129
S1131B2031818A819B81845A9F4FFC0120833183B8
S1131B308A819B81825A9F4F21E0FC0120838A8104
S1131B409B81F8E287349F0731F08A819B8127E2E9
S1131B508736920769F48A819B81875B9F4FFC01DA
S1131B6020818A819B818E599F4FFC0120830AC06A
S1131B708A819B818F599F4FFC018081682F88E364
S1131B8098E277DD8A819B818B599F4FFC0180818C
S1131B9091819C012F5F3F4F8A819B818B599F4F7D
S1131BA0FC01208331838A819B81865B9F4FFC01EA
S1131BB0108211820AC08A819B81049645DD982F88
S1131BC081E08927882309F01DCF2396CDBFDEBF8E
S1131BD0DF91CF9108958F929F92AF92BF92CF924F
S1131BE0DF92EF92FF920F931F93CF93DF931F9295
S1131BF01F92CDB7DEB789839A8389819A81815AEE
S1131C009F4FFC014081518189819A81FC0180812F
S1131C1091819C0189819A81895A9F4FFC0160813D
S1131C20718189819A81FC01828193811F921F9223
S1131C30812C912C5A01C12CD12CE12CF12C89013D
S1131C4020E130E040E050E01DDA0F900F908981F0
S1131C509A81FC0182819381FED989819A81875975
S1131C609F4FFC01808191819C012F5F3F4F8981AF
S1131C709A8187599F4FFC01208331830F900F90E5
S1131C80DF91CF911F910F91FF90EF90DF90CF9054
S1131C90BF90AF909F908F9008950F931F93CF9311
S1131CA0DF9300D01F92CDB7DEB789839A836B830D
S1131CB07C838B819C81875A9F4FDC012D913C91C1
S1131CC08B819C81815A9F4FFC01208331838981C0
S1131CD09A81845A9F4FDC014D915C9189819A814C
S1131CE08D5A9F4FFC012081318189819A818F59BE
S1131CF09F4FDC01EC918B819C81BC01615A7F4F29
S1131D008B819C81895A9F4FDC018D919C918A0122
S1131D104E2F7BD6282F8B819C818C599F4FFC01A1
S1131D2020838B819C818C599F4FDC018C91813065
S1131D3051F489819A81845A9F4FFC011082118247
S1131D408B819C8148DF2496CDBFDEBFDF91CF918C
S1131D501F910F910895CF93DF93CDB7DEB7D5D3FD
S1131D60BAD345D5ECD3C2D4D1D5F9CFCF93DF9331
S1131D70CDB7DEB7F89481E0DF91CF910895CF938A
S1131D80DF931F921F92CDB7DEB789839A838FE3C7
S1131D9090E029813A81F9012081FC0120830F9090
S1131DA00F90DF91CF910895CF93DF93CDB7DEB736
S1131DB02597CDBFDEBF8C839D838FE390E0FC012C
S1131DC080818B83D3DF8A8308C08C819D818C5B67
S1131DD09F4FFC01808189831A828A818823A9F715
S1131DE0CE010396CCDF89812596CDBFDEBFDF917E
S1131DF0CF910895CF93DF931F921F92CDB7DEB793
S1131E0089839A8389819A81CFDF982F81E09034E6
S1131E1009F080E00F900F90DF91CF910895CF9358
S1131E20DF93CDB7DEB72597CDBFDEBF8B839C8311
S1131E306D838B819C81805C9F4FFC0180819181AB
S1131E402D81FC0120838B819C81805C9F4FFC0150
S1131E50808191819C012F5F3F4F8B819C81805CAD
S1131E609F4FFC01208331838B819C81805C9F4F39
S1131E70FC01208131818B819C81805C9F4F2817DC
S1131E80390749F42B813C818B819C81805C9F4F75
S1131E90FC01208331838FE390E0FC0180818A83FD
S1131EA065DF89830FC08B819C818C5B9F4FFC0114
S1131EB08081282F2F5F8B819C818C5B9F4FFC013D
S1131EC0208319828981882371F7CE01029657DF16
S1131ED02596CDBFDEBFDF91CF9108951F920F925B
S1131EE000903F000F92112400903B000F922F931B
S1131EF03F934F935F936F937F938F939F93AF938E
S1131F00BF93EF93FF93CF93DF93CDB7DEB70E94D8
S1131F104803DF91CF91FF91EF91BF91AF919F91D2
S1131F208F917F916F915F914F913F912F910F907E
S1131F3000923B000F9000923F000F901F90189565
S1131F401F920F9200903F000F9211242F938F93B2
S1131F509F93CF93DF93CDB7DEB78091B52C90914B
S1131F60B62C01968093B52C9093B62C8091B52C09
S1131F709091B62C873E23E09207B0F01092B52CD6
S1131F801092B62C8091B72C9091B82C0196809326
S1131F90B72C9093B82C8091B12C9091B22C0196CF
S1131FA08093B12C9093B22CDF91CF919F918F911C
S1131FB02F910F9000923F000F901F9018951F9241
S1131FC00F9200903F000F92112400903B000F925B
S1131FD02F933F934F935F936F937F938F939F932D
S1131FE0AF93BF93EF93FF93CF93DF931F92CDB73C
S1131FF0DEB784E791E2FEDE882381F080917021D0
S113200090917121FC018081898389818F5F89830B
S11320108091CB218F5F8093CB210AC08091702166
S113202090917121FC018081682F84E791E2F7DEB1
S11320300F90DF91CF91FF91EF91BF91AF919F915D
S11320408F917F916F915F914F913F912F910F905D
S113205000923B000F9000923F000F901F90189544
S11320601F920F9200903F000F92112400903B00AA
S11320700F922F933F934F935F936F937F938F931D
S11320809F93AF93BF93EF93FF93CF93DF931F92ED
S1132090CDB7DEB785E090E2ADDE882381F0809194
S11320A0012090910220FC018081898389818F5FC6
S11320B0898380915C208F5F80935C200AC080912B
S11320C0012090910220FC018081682F85E090E23C
S11320D0A6DE0F90DF91CF91FF91EF91BF91AF9169
S11320E09F918F917F916F915F914F913F912F912C
S11320F00F9000923B000F9000923F000F901F90B2
S113210018951F920F9200903F000F921124009097
S11321103B000F922F933F934F935F936F937F9363
S11321208F939F93AF93BF93EF93FF93CF93DF93DB
S11321301F92CDB7DEB78BE697E25CDE882381F091
S11321408091672790916827FC0180818983898128
S11321508F5F89838091C2278F5F8093C2270AC0D3
S11321608091672790916827FC018081682F8BE616
S113217097E255DE0F90DF91CF91FF91EF91BF91E0
S1132180AF919F918F917F916F915F914F913F910B
S11321902F910F9000923B000F9000923F000F9000
S11321A01F9018951F920F9200903F000F921124D8
S11321B000903B000F922F933F934F935F936F9345
S11321C07F938F939F93AF93BF93EF93FF93CF939B
S11321D0DF931F92CDB7DEB78BE498E20BDE882342
S11321E081F08091472890914828FC01808189835F
S11321F089818F5F89838091A2288F5F8093A22831
S11322000AC08091472890914828FC018081682F5A
S11322108BE498E204DE0F90DF91CF91FF91EF9170
S1132220BF91AF919F918F917F916F915F914F91EA
S11322303F912F910F9000923B000F9000923F002E
S11322400F901F9018951F920F9200903F000F92CD
S1132250112400903B000F922F933F934F935F9371
S11322606F937F938F939F93AF93BF93EF93FF935A
S1132270CF93DF931F92CDB7DEB78EE794E2BADD3A
S1132280882381F080917A2490917B24FC018081C1
S1132290898389818F5F89838091D5248F5F80931F
S11322A0D5240AC080917A2490917B24FC018081FA
S11322B0682F8EE794E2B3DD0F90DF91CF91FF9109
S11322C0EF91BF91AF919F918F917F916F915F91AA
S11322D04F913F912F910F9000923B000F900092ED
S11322E03F000F901F901895CF93DF93CDB7DEB7C3
S11322F0F89481E0DF91CF910895CF93DF931F92FB
S11323001F92CDB7DEB789839A838FE390E029814A
S11323103A81F9012081FC0120830F900F90DF9115
S1132320CF910895CF93DF93CDB7DEB72597CDBF77
S1132330DEBF8C839D838FE390E0FC0180818B83DF
S1132340D3DF8A8306C08C819D81FC0186858983C5
S11323501A828A818823B9F7CE010396CEDF898158
S11323602596CDBFDEBFDF91CF910895CF93DF9344
S11323701F921F92CDB7DEB789839A8389819A8190
S1132380D1DF982F81E0992309F080E00F900F901E
S1132390DF91CF910895CF93DF93CDB7DEB7259723
S11323A0CDBFDEBF8B839C836D838B819C81FC01BD
S11323B0828593852D81FC0120838B819C81FC0186
S11323C0828593859C012F5F3F4F8B819C81FC010B
S11323D0228733878B819C81FC01228533858B8105
S11323E09C810A962817390739F42B813C818B810B
S11323F09C81FC01228733878FE390E0FC0180817C
S11324008A8372DF89830BC08B819C81FC01868562
S1132410282F2F5F8B819C81FC012687198289815B
S1132420882391F7CE01029668DF2596CDBFDEBFE3
S1132430DF91CF910895CF93DF93CDB7DEB7259782
S1132440CDBFDEBF8C839D838C819D81FC018485FF
S11324509585FC0180818A838C819D81FC01848522
S113246095859C012F5F3F4F8C819D81FC012487C2
S113247035878C819D81FC01248535858C819D81E6
S11324800A962817390739F42C813D818C819D8166
S1132490FC01248735878FE390E0FC0180818B83E6
S11324A023DF89830BC08C819D81FC018685282FC5
S11324B021508C819D81FC01268719828981882382
S11324C091F7CE01039619DF8A812596CDBFDEBF31
S11324D0DF91CF910895CF93DF93CDB7DEB781E03D
S11324E090E288DA80915F20882361F08091542003
S11324F09091552020E5FC01A2EBB8E201900D92E9
S11325002A95E1F7DF91CF910895CF93DF93CDB76B
S1132510DEB780E791E26EDA8091CE21882361F004
S11325208091C3219091C42120E6FC01A0E2B9E28C
S113253001900D922A95E1F7DF91CF910895CF9301
S1132540DF93CDB7DEB7CC56D109CDBFDEBF87E46C
S113255098E250DA8091A528882309F453C0109298
S1132560A5281092DB218091A928882F90E085303E
S1132570910591F18630910524F48130910541F063
S113258040C08A30910569F18833910559F039C00A
S113259060E771E287E498E280DB1092B12C10923C
S11325A0B22C30C04091A3285091A42820919A289D
S11325B030919B288091D1249091D224B901BBD42D
S11325C08091A3289091A4288093D9249093DA240D
S11325D08AE794E200DB16C06BE080E595E2DBDE7F
S11325E011C080919A2890919B2821E2FC01A9E5D1
S11325F0B4E201900D922A95E1F781E08093DB210A
S113260001C0000088E398E2B1DE982F81E08927B9
S1132610882309F464C088E398E20DDF8983898103
S1132620882F90E086309105D9F0873091053CF4ED
S11326308130910559F08530910531F145C08A30DA
S1132640910561F188339105A9F03EC08BE6E0E77E
S1132650F1E2DE01129601900D928A95E1F737C0FE
S11326608BE6E1E0F0E2DE01129601900D928A958C
S1132670E1F72DC08BE6EAE7F4E2DE011296019061
S11326800D928A95E1F723C08BE6E7E6F7E2DE01D7
S1132690129601900D928A95E1F719C08BE6E5EE4A
S11326A0F4E2DE01129601900D928A95E1F782E838
S11326B099E2809338259093392583E090E08093C4
S11326C041259093422503C08AEA898300008981C9
S11326D08A3A29F0CE01029667E478E2DEDAC45938
S11326E0DF4FCDBFDEBFDF91CF910895CF93DF934E
S11326F0CDB7DEB78091DB218823C9F11092DB21AD
S113270080915924882F90E08F30910529F1803FE2
S1132710910539F0009751F56AE088E398E23BDED1
S113272026C080915A2490915B248431910580F0D5
S113273080915A2490915B248D3221E0920740F4D9
S113274080915A2490915B248093802990938129CD
S113275081E080936F210BC08EE1ECE5F4E2A2E00E
S1132760B9E201900D928A95E1F701C000008091D1
S113277058248823B1F01092582480916C20882F1B
S113278090E0803F910561F480916D2090916E20DE
S1132790809380299093812981E080936F2101C0E7
S11327A000008091B92C882311F00E94900480913C
S11327B0B12C9091B22C883522E09207A8F080E0E9
S11327C090E2809338259093392581E090E08093BE
S11327D041259093422560E771E285EE94E25DDA4B
S11327E01092B12C1092B22CDF91CF910895CF9317
S11327F0DF931F92CDB7DEB787E697E2FBD88091CF
S1132800C527882309F455C01092C527109258246F
S11328108091C927882F90E08A309105B9F18B30D7
S1132820910524F48130910541F042C08B3091052B
S113283041F18833910559F03BC060E771E287E6C6
S113284097E22BDA1092B12C1092B22C32C0409144
S1132850C3275091C4272091BA273091BB27809178
S1132860D1249091D224B90166D38091C327909149
S1132870C4278093D9249093DA248AE794E2ABD9CD
S113288018C065E088E398E286DD13C08091BA271A
S11328909091BB27FC0180819181A28180936C205F
S11328A090936D20A0936E2081E08093582401C002
S11328B0000080E595E25ADD982F81E0892788237E
S11328C009F180E595E2B7DD898389818B3031F4A4
S11328D067E677E287E498E2E0D914C089818A3018
S11328E089F482EB98E280933825909339258EEC15
S11328F090E0809341259093422567E677E285EE48
S113290094E2CBD90F90DF91CF910895CF93DF93C9
S1132910CDB7DEB7DF91CF910895CF93DF9300D089
S11329201F92CDB7DEB78A836B837C83198232C052
S11329308A81282F30E08B819C81FC0180819181E8
S11329408227932781709927009789F08B819C8136
S1132950FC01808191819695879528E034E82827A9
S113296039278B819C81FC01208331830DC08B81AD
S11329709C81FC01808191819C01369527958B81F6
S11329809C81FC01208331838A8186958A83898195
S11329908F5F89838981883058F22496CDBFDEBF4A
S11329A0DF91CF910895CF93DF9300D000D0CDB7BE
S11329B0DEB789839A836B837C834D835E838981AD
S11329C09A81FC01108289819A812B813C81FC01CE
S11329D02183328389819A812D813E81FC01258363
S11329E0368389819A81FC011782108689819A81B4
S11329F0FC011382148289819A81FC011186269636
S1132A00CDBFDEBFDF91CF9108950F931F93CF9376
S1132A10DF93CDB7DEB76197CDBFDEBF89879A87D5
S1132A206B877C874D872E873F87088B198B1F8286
S1132A30188619821A821B821C8289859A850097BE
S1132A4021F08E859F85009711F485E001C18D8565
S1132A508C3028F08D85883311F086E0F9C0CE01E2
S1132A600796BC018D8559DF19821A8212C02E8502
S1132A703F8589819A81820F931FFC012081CE01B9
S1132A800796BC01822F49DF89819A810196898347
S1132A909A8329813A81888999892817390738F3D3
S1132AA02E853F8589819A81820F931F2F813885D6
S1132AB0232F3327FC01208389819A8101968983FE
S1132AC09A832E853F8589819A81820F931F2F8156
S1132AD03885FC01208389819A81019689839A83B0
S1132AE089819A818D839E8329853A858B819C81F6
S1132AF0820F931F20ECFC0120838B819C81019623
S1132B008B839C8329853A858B819C81820F931FBB
S1132B102D85FC0120838B819C8101968B839C8372
S1132B2019821A8277C02E853F8589819A81820F06
S1132B30931FFC018081803CE9F429853A858B81CF
S1132B409C81820F931F2BEDFC0120838B819C8140
S1132B5001968B839C8329853A858B819C81820F86
S1132B60931F2CEDFC0120838B819C8101968B8328
S1132B709C833CC02E853F8589819A81820F931F57
S1132B80FC0180818B3DE9F429853A858B819C8108
S1132B90820F931F2BEDFC0120838B819C81019676
S1132BA08B839C8329853A858B819C81820F931F1B
S1132BB02DEDFC0120838B819C8101968B839C836A
S1132BC015C029853A858B819C81820F931F4E8580
S1132BD05F8529813A81240F351FF9012081FC0189
S1132BE020838B819C8101968B839C838B859C8520
S1132BF0FC01808191819C01215031098B819C8150
S1132C008217930710F083E023C089819A8101968B
S1132C1089839A8329813A818D819E812817390776
S1132C2008F481CF29853A858B819C81820F931F7B
S1132C3020ECFC0120838B819C8101968B839C83F7
S1132C408B859C852B813C81FC012083318381E031
S1132C506196CDBFDEBFDF91CF911F910F91089593
S1132C60CF93DF93CDB7DEB72797CDBFDEBF8D837C
S1132C709E836F838D819E81FC0181819281009767
S1132C8011F485E030C18D819E81FC01278130855E
S1132C908D819E81FC0185819681019728173907D2
S1132CA010F083E020C18D819E81FC018185882FF5
S1132CB090E08230910509F461C0833091051CF4E1
S1132CC0009741F09DC08031910571F080329105EB
S1132CD0F1F096C08F81803C09F097C08D819E8170
S1132CE020E1FC01218791C08F818C3028F08F81F5
S1132CF0883311F086E0F7C08D819E812F81FC011D
S1132D0020838D819E8120E2FC0121877FC08F81F9
S1132D10803C99F48D819E81FC0187819085009788
S1132D2031F08D819E8121E0FC0121876FC08D816E
S1132D309E8120E1FC01218769C08F818B3D31F4A4
S1132D408D819E8122E0FC01218760C08D819E815E
S1132D50FC01218132818D819E81FC0187819085D6
S1132D60280F391F4F81F90140839C012F5F3F4F8A
S1132D708D819E81FC012783308748C08F818C3DE3
S1132D80E9F48D819E81FC01218132818D819E81B6
S1132D90FC0187819085280F391F40ECF90140839D
S1132DA09C012F5F3F4F8D819E81FC0127833087DB
S1132DB08D819E8120E2FC01218728C08F818D3D79
S1132DC0E9F48D819E81FC01218132818D819E8176
S1132DD0FC0187819085280F391F4BEDF901408351
S1132DE09C012F5F3F4F8D819E81FC01278330879B
S1132DF08D819E8120E2FC01218708C087E073C099
S1132E008D819E81FC01118601C000008D819E810F
S1132E10FC018185813009F062C08D819E81FC01B5
S1132E20218132818D819E81FC0187819085029769
S1132E30820F931FFC018081882F90E0382F222776
S1132E408D819E81FC01418152818D819E81FC0195
S1132E50878190850197840F951FFC018081882FBD
S1132E6090E0820F931F8B839C838D819E81FC0154
S1132E70878190859C01225031098D819E81FC01BE
S1132E80278330878D819E8103962D813E81F901B0
S1132E902081BC01822F41DD19821A8216C08D81E6
S1132EA09E8103962D813E81F901418152812981C0
S1132EB03A81240F351FF9012081BC01822F2DDDB9
S1132EC089819A81019689839A838D819E81FC01EF
S1132ED02781308589819A818217930700F38D8138
S1132EE09E81FC0181852796CDBFDEBFDF91CF9106
S1132EF00895A1E21A2EAA1BBB1BFD010DC0AA1F37
S1132F00BB1FEE1FFF1FA217B307E407F50720F04E
S1132F10A21BB30BE40BF50B661F771F881F991FC9
S1132F201A9469F760957095809590959B01AC0112
S1132F30BD01CF010895FB01DC0102C001900D9297
S10F2F4041505040D8F70895F894FFCF9A
S9030000FC
