S00E000076696F6C65742E7372656383
S11300000C94F4000C9413010C9413010C9413013C
S11300100C9413010C9413010C9413010C9413010C
S11300200C9413010C9413010C9413010C941301FC
S11300300C9413010C9413010C947E0D0C94520D2A
S11300400C9413010C9413010C94910E0C94130151
S11300500C94680E0C94530E0C9413010C9413011D
S11300600C9413010C9413010C9413010C941301BC
S11300700C9413010C9413010C941E0E0C94130194
S11300800C94F50D0C9413010C9413010800090051
S113009009000A000B000C000D000D000E000F00FB
S11300A010001100120013001400150016001700B0
S11300B019001A001B001D001E001F002100220051
S11300C024002500270028002B002C002E003000DF
S11300D032003400360038003B003E003F0042004E
S11300E0450048004C00500059006B007F008A0016
S11300F09C00A800B300C100CE00DD00EA00F900B6
S11301000D011F012B013F017E01A901B701E1018E
S1130110FF01180228023D024D0262027D02900294
S1130120B802C502D602E902FA020803160325033F
S1130130320340034D0360036F0377038303950386
S11301409F03AA03B403C003C903D503DF03EB036E
S1130150F503000405041204190422042C043404D5
S11301603704400474047E04000003000300030009
S11301700300030003000300030003000300030063
S11301800300030003000300030004000400040050
S11301900400180018001800180040004000400037
S11301A040006800680068006800990099009900A0
S11301B09900CD00CD00CD00CD00FF00FF00FF0071
S11301C0FF0039013901390139019701970197017C
S11301D097012602A90240039103EF0318042A049D
S11301E034043E0445044D0411241FBECFEFD0E176
S11301F0DEBFCDBF13E0A0E0B1E0E4E0FCE200E04C
S11302000BBF02C007900D92A630B107D9F72FE0BB
S1130210A6E0B3E001C01D92A53BB207E1F70E943E
S11302209B080C9400160C9400008F92AF92CF920E
S1130230EF920F93CF93DF93CDB7DEB79CE1899F05
S1130240F0011124EA5CFC4F608341832283138212
S11302500483E582C682A7821386148685868A85EE
S113026086878B8587878C85808B148A158A8D85F4
S1130270868B8E85878B138EDF91CF910F91EF90B4
S1130280CF90AF908F9008955F926F927F928F92EC
S11302909F92AF92BF92CF92DF92EF92FF920F9311
S11302A01F93CF93DF9380E687B98FE886B91F92B7
S11302B0D3E0DF931F92CFEFCF9386E0F82EFF9227
S11302C0812CA12CCC24CA949BE0E92E00E020E0F0
S11302D047E060E080E00E94150187E08F93DD2411
S11302E0D394DF921F92CF938F9327E1E22E20E0E5
S11302F048E061E081E00E9415011F92DF931F92A4
S1130300CF931F928824839433E1E32E01E020E00D
S113031041E062E082E00E9415011F92DF931F9288
S1130320CF938EE08F9342E0842E5DE0E52E02E0D1
S113033020E041E063E083E00E9415011F92DF9317
S11303401F92CF93DF928824839465E1E62E01E027
S113035020E042E064E084E00E9415011F92DF93F4
S11303601F92CF9312E01F937AE1E72E20E043E03F
S113037065E085E00E9415011F92DF931F92CF93E1
S1130380DF93EDE1EE2E20E044E066E086E00E949B
S113039015018DB79EB783960FB6F8949EBF0FBE16
S11303A08DBF1F92DF931F92CF93FFE1BF2EBF92A9
S11303B0AEE0EA2E20E045E067E087E00E94150108
S11303C01F92DF931F92CF93B4E06B2E6F928BE159
S11303D0E82E20E046E068E088E00E9415011F92C4
S11303E0DF931F92CF9398E0792E7F922FE0E22E35
S11303F020E049E069E089E00E9415011F92DF9343
S11304001F92CF9339E0932E9F9249E1E42E20E08E
S11304104AE06AE08AE00E9415011F92DF931F926E
S1130420CF938AE08F9358E1E52E20E04BE06BE018
S11304308BE00E9415011F92DF931F92CF9360E11E
S1130440562E5F9271E1E72E20E04CE06CE08CE0E8
S11304500E9415017F921F931F92CF938CE08F937C
S1130460E6E1EE2E20E04DE06DE08DE00E94150106
S11304708DB79EB783960FB6F8949EBF0FBE8DBFFF
S11304801F92DF931F92CF93FF92812CF4E0EF2E03
S113049000E020E04EE06EE08EE00E9415011F9225
S11304A0DF931F92CF931F92A3E08A2EB5E1EB2E28
S11304B002E020E040E16FE08FE00E9415011F920E
S11304C0DF931F92CF938DE08F938824839402E16E
S11304D0E02E01E020E04FE060E180E10E941501A0
S11304E01F92DF931F92CF9385E0782E7F929CE139
S11304F0E92E20E04FEF61E181E10E9415011F9296
S1130500DF931F92CF935F9222E0822E3FE0E32E8F
S113051002E020E04FEF62E182E10E9415011F92A8
S1130520DF931F92CF9382E18F9341E1E42E20E089
S11305304FEF63E183E10E9415019F921F931F9285
S1130540CF931F93812CEE24E39400E021E04FEF3E
S113055064E184E10E9415018DB79EB783960FB6BE
S1130560F8949EBF0FBE8DBF8BE08F931F931F9295
S1130570CF935EE1952E9F9262E0862E74E1E72E82
S113058002E021E04FEF65E185E10E9415011F9231
S1130590DF931F92CF93DF93812CE7E0EE2E00E0F0
S11305A021E04FEF66E186E10E9415011F921F933F
S11305B01F92CF9384E18F93F2E1EF2E21E04FEF6E
S11305C067E187E10E941501DF921F931F92CF9389
S11305D085E18F93A3E1EA2E21E04FEF68E188E102
S11305E00E9415011F931F931F92CF9386E18F934F
S11305F0BAE0EB2E21E04FEF69E189E10E94150199
S1130600DF931F931F92CF9387E18F938FE0E82EA0
S113061021E04FEF6AE18AE10E9415016F921F9376
S11306201F92CF9388E18F9399E0E92E21E04FEF59
S11306306BE18BE10E9415018DB79EB783960FB6CF
S1130640F8949EBF0FBE8DBF1F92DF931F92CF936E
S113065089E18F932EE0E22E21E04FEF6CE18CE1F3
S11306600E9415011F92DF931F92CF938AE18F930B
S113067030E1E32E21E04FEF6DE18DE10E941501A1
S11306801F92DF931F92CF938BE18F9348E0E42E68
S113069021E04FEF6EE18EE10E9415017F921F93DE
S11306A01F92CF938CE18F935DE0E52E21E04FEF15
S11306B06FE18FE10E9415011F92DF931F92CF9388
S11306C08DE18F936CE0E62E21E04FEF60E280E253
S11306D00E9415011F92DF931F92CF939F927BE09C
S11306E0E72E21E04FEF61E281E20E9415011F92A3
S11306F0DF931F92CF93BF92E1E1EE2E21E04FEF03
S113070062E282E20E9415018DB79EB783960FB60E
S1130710F8949EBF0FBE8DBFFF921F931F92CF937D
S11307201F92F5E0EF2E21E04FEF63E283E20E9497
S113073015010F900F900F900F900F90DF91CF91B4
S11307401F910F91FF90EF90DF90CF90BF90AF90EB
S11307509F908F907F906F905F900895FF920F937A
S11307601F93CF93DF93F82EFB01C18190819330C7
S113077009F45DC030F40C2F10E0913029F1A8F594
S11307800CC0953009F458C008F453C0963009F4ED
S113079063C0973009F07EC06EC02CE231E0309324
S11307A09F0D20939E0D8CE1809FE001819FD00DD1
S11307B01124CA5CDC4F89818F3F21F00E94D80943
S11307C081E08A8340E00FC08CE1809FE001819F3B
S11307D0D00D1124CA5CDC4F89818F3F19F00E942F
S11307E01B0A1A8241E062E057C08CE1809FE0015D
S11307F0819FD00D1124CA5CDC4F89818F3F19F091
S11308000E941B0A1A8285E08A95F1F78CE1809F89
S1130810E001819FD00D1124CA5CDC4F89818F3F98
S113082021F00E94D80981E08A8342E0DCCF43E0D2
S1130830DACF40E060E030C08CE1C89FE0011124D1
S1130840CA5CDC4F89818F3F29F00E94D80981E07E
S11308508A838B8345E0C7CF8CE1C89FE0011124D4
S1130860CA5CDC4F89818F3FF9F082818E8382815B
S113087080937F0B19C08CE1C89FE0011124CA5CEE
S1130880DC4F89818F3F81F082818F8782818093C1
S11308907A0B0AC040E061E08F2DDF91CF911F9168
S11308A00F91FF900C946112DF91CF911F910F91E2
S11308B0FF900895CF9390916D099F3F09F4C2C0B2
S11308C080915709882309F4BDC080916E0988235B
S11308D021F081E08093AB0D02C01092AB0D8091AA
S11308E0AB0D882319F09F3720F0A0C0983708F08B
S11308F09DC0953608F495C0C09106032C2F2F5F38
S1130900209306038823F1F18091830D9A3620F415
S11309108295869586950BC0292F2A5682958695B1
S1130920869583702A3010F48F5F01C08E5F8370C8
S113093080939B0DE92FF0E0E556F109EE0FFF1FC0
S1130940EE0FFF1FE80FF11DEE0FFF1FE457FF4FDF
S1130950659174916B50710980E090E00E94DF13FF
S113096028EB3EE149E251E40E94771360932D079E
S113097070932E0780932F0790933007C95FC0931D
S1130980060360C09A3630F48091830D8295869573
S1130990869517C0892F8A568A3040F48091830D3A
S11309A082958695869583708F5F0BC0892F8457B7
S11309B0833048F48091830D829586958695837063
S11309C08E5F837001C080E080939B0DE7E7F0E0C9
S11309D0E91BF109EE0FFF1FEE0FFF1FE81BF109E2
S11309E0EE0FFF1FE859FE4F6591749180E090E08F
S11309F00E94DF1328EB3EE141E251E40E947713A9
S1130A009B01AC0160E070E088EC92E40E940E135C
S1130A1060932D0770932E0780932F0790933007D0
S1130A2011C080E090E0A0E8BFEB04C080E090E05B
S1130A30A8EDB2E480932D0790932E07A0932F077F
S1130A40B093300780916E0981508E3F28F48091D5
S1130A5006038F5F80930603CF91089580E090E3AF
S1130A60AFE1B6E48093740990937509A093760975
S1130A70B09377098CE59FE8A4E9B1E48093460933
S1130A8090934709A0934809B09349098DEC9CECD5
S1130A90A8E3B3E48093230390932403A093250352
S1130AA0B093260386E696EEA5E2B4E480938F0D18
S1130AB09093900DA093910DB093920D86E696EAD3
S1130AC0A1E5B4E48093AE0D9093AF0DA093B00D67
S1130AD0B093B10D81EE9AEFACE9B2E4809368096A
S1130AE090936909A0936A09B0936B0986E696EC22
S1130AF0A7E0B4E48093260790932707A0932807E0
S1130B00B093290780E090EBA7E1B5E480936409F2
S1130B1090936509A0936609B093670980E098E90A
S1130B20AEEAB5E48093A30D9093A40DA093A50D14
S1130B30B093A60D089580E096E1A9E8B6E4809309
S1130B403B0790933C07A0933D07B0933E0788EB87
S1130B5093EC90938C0D80938B0D8AEE98EB90938D
S1130B60960D8093950D8FE69CE990932B078093C7
S1130B702A0785E99CE290935D0980935C0981E7EB
S1130B809AEA90932103809320038AEC98E390934C
S1130B9051098093500982E093E090938E0D8093E5
S1130BA08D0D8DEA97E09093940D8093930D80E8DA
S1130BB095E190934507809344078EE49CEF9093CE
S1130BC04307809342078BE393E090938A0D8093CD
S1130BD0890D8CED9BE6AEE2B0E4809331079093EF
S1130BE03207A0933307B093340780E895E5A2EC6D
S1130BF0B1E18093580990935909A0935A09B0938D
S1130C005B0980EA9CE3A3E7BCE080932B03909309
S1130C102C03A0932D03B0932E0380EA96E6ACEF49
S1130C20B9E18093300390933103A0933203B093DE
S1130C30330380E295EBA4EAB6EF809353099093D3
S1130C405409A0935509B093560980E992ECADEB91
S1130C50BBE080934B0990934C09A0934D09B0934A
S1130C604E0988E89BE7A5E8BBEF8093970D909326
S1130C70980DA093990DB0939A0D8CED93ECA6E08A
S1130C80BFEF80931C0390931D03A0931E03B093A6
S1130C901F038AE69DEAA7EDBFEF80937F0D909333
S1130CA0800DA093810DB093820D8CEB90EEA4E6A1
S1130CB0BFEF8093070390930803A0930903B093B5
S1130CC00A0382EC96ECAAEBBEE380937B0B909331
S1130CD07C0BA0937D0BB0937E0B0895EF92FF9253
S1130CE00F931F93CF93DF931FEF1ABB87E08BBB48
S1130CF017BB80EE88BB14BB15BB8BEF81BB80EFA9
S1130D0082BB9EEF92B913B8809361001092620087
S1130D108FE18093640004E00093650087B78260EC
S1130D2087BF87E481BF83B78F6083BF83E690E08A
S1130D309093770B8093760B87EC90E09093790BEC
S1130D408093780B1092A10D8EB582608EBD1DBC70
S1130D501CBC87B7846087BF80EF92ED90939D0D94
S1130D6080939C0D8CE291E090939F0D80939E0D57
S1130D700E94BE0B109228031092270310922A039C
S1130D801092290310923F07109240078AE090E0E6
S1130D900E94BD147C01E7EAFDE08083F1828AE0D1
S1130DA090E00E94BD14C9EADDE0888399834FEF87
S1130DB050E061E87BE0C7010E94E40B4FEF50E094
S1130DC060E87CE0888199810E94E40B1092AC0D6C
S1130DD01092AD0D0E9444017894C1E0C09345097E
S1130DE010923503009352091092630910927F0BFD
S1130DF010927A0B10924F0910924A091092880DA2
S1130E0010922F0310926F090E942E050E949B05D9
S1130E1010936D091093800B109336071092A20D56
S1130E2010923403109235071092410710922D0747
S1130E3010922E0710922F07109230071092B00FC5
S1130E4010925E0910926C0910922C071092AB0D4F
S1130E501092570910922203C0930B03A091170319
S1130E60CCE1CA9FD0011124AA5CBC4F11968C918D
S1130E700E941B0AE0911803CE9FF0011124EA5C42
S1130E80FC4F81810E941B0A1092140510923005B8
S1130E9010924C0581E10E94A10982E10E94A109FE
S1130EA083E1DF91CF911F910F91FF90EF900C940C
S1130EB0A10987E795E00E945E0A8093A20D833022
S1130EC010F08DED01C08CEC809336070895CF921D
S1130ED0DF92EF92FF920F931F93CF93DF93C09013
S1130EE02D07D0902E07E0902F07F090300720E0D8
S1130EF030E0A901C701B6010E94731387FF4CC0FB
S1130F0029E23CE54FE05FEBC701B6010E94731391
S1130F1087FF0AC025E83BEE41E15FEBC701B6015C
S1130F200E9491141816C4F181E080934F090CE0DB
S1130F3013E03CE1F32EF801C1918F01FC9EE00126
S1130F401124CA5CDC4F89810E941B0A1A82F3E0D7
S1130F500C311F0781F7109214051092300510927E
S1130F604C0581E10E94A10982E10E94A10983E16B
S1130F700E94A10980914A09811108C080912F0320
S1130F80811104C040E062E00E94611281E080931C
S1130F902F0380934A0928C020E030E048EC52E453
S1130FA0C701B6010E9491141816F4F48091AB0D98
S1130FB08823D1F010924F098091A3040E94D8098C
S1130FC081E08093A4048091880D811108C08091F0
S1130FD06F09811104C044E662E00E94611281E05D
S1130FE080936F098093880DDF91CF911F910F91AA
S1130FF0FF90EF90DF90CF900895CF92DF92EF9221
S1131000FF92CF93C0902D07D0902E07E0902F072A
S1131010F090300720E030E040EA52E4C701B60126
S11310200E949114181674F480916F030E94D809D9
S1131030C1E0C093700380918B030E94D809C093D0
S11310408C0315C020E030E0A901C701B6010E945D
S1131050731387FF0CC080916F030E941B0A1092C8
S1131060700380918B030E941B0A10928C03C09022
S11310702D07D0902E07E0902F07F090300720E046
S113108030E048E452E4C701B6010E9491141816F6
S113109074F480916B040E94D809C1E0C0936C047D
S11310A0809187040E94D809C093880415C020E069
S11310B030E0A901C701B6010E94731387FF0CC079
S11310C080916B040E941B0A10926C048091870427
S11310D00E941B0A10928804C0902D07D0902E07FE
S11310E0E0902F07F090300720E030E048E452E42D
S11310F0C701B6010E949114181644F48091DF03CD
S11311000E94D80981E08093E0030FC020E030E022
S1131110A901C701B6010E94731387FF06C080911D
S1131120DF030E941B0A1092E003CF91FF90EF901F
S1131130DF90CF9008950E946E068091DF030E9495
S11311401B0A809187040E941B0A80916F030E94EE
S11311501B0A80918B030E941B0A8091A3040E94A6
S11311601B0A1092E00310928804109270031092EC
S11311708C031092A40410924409FF24F394C7EC46
S1131180D0E00CE211E0809144099F2D981B9093CC
S113119044098091780B9091790B892B49F4D09371
S11311A0790BC093780B40E060E081E00E9461120B
S11311B08091760B9091770B892B49F4D093770B20
S11311C0C093760B40E060E080E00E946112809161
S11311D0AC0D8823C9F08091AC0D81508093AC0D87
S11311E0E091A70DF091A80D61817281478180E0A3
S11311F00E94AE034FEF50E061E87BE08091A70DC1
S11312009091A80D0E94E40B8091AD0D8823C9F044
S11312108091AD0D81508093AD0DE091A90DF091B9
S1131220AA0D61817281478181E00E94AE034FEF74
S113123050E060E87CE08091A90D9091AA0D0E9495
S1131240E40B809145098130A1F4109245090E9474
S1131250950A0E945A040E94FD0780912C0781116F
S113126002C00E94670780913503873111F40E9400
S1131270590780912203813009F085CF109222030F
S113128010939F0D00939E0D7ECFA898E5E6F0E0A5
S113129080818D7F808308958130F9F020F0823041
S11312A009F04EC034C064FF02C0DF9A01C0DF9869
S11312B063FF02C0DE9A01C0DE9862FF02C0DD9ABD
S11312C001C0DD9861FF02C0DC9A01C0DC9860FFB8
S11312D002C0DB9A0895DB98089564FF02C0C09AA7
S11312E001C0C09863FF02C0C19A01C0C19862FFE7
S11312F002C0C29A01C0C29861FF02C0C39A01C071
S1131300C39860FF02C0C49A0895C498089564FF06
S113131002C01B9A01C01B9863FF02C01C9A01C043
S11313201C9862FF02C01D9A01C01D9861FF02C093
S11313301E9A01C01E9860FF02C01F9A08951F984C
S11313400895823131F0833159F0813199F40C944C
S11313504509809165008E7F80936500909808957B
S113136080916500877F80936500809165008F7E02
S1131370809365000895823149F0833171F08131A1
S1131380B1F4A89A8091650082600FC080916500D5
S1131390816080936500909A0895809165008860CB
S11313A08093650080916500806180936500089555
S11313B0883059F168F4843001F130F48230C9F096
S11313C0D0F48130B9F513C08630D9F0E0F417C0F9
S11313D08C3039F120F48A3001F108F518C08E30D0
S11313E021F108F18F3019F1803121F522C0D89A0A
S11313F00895D99A0895DA9A0895C59A0895C69ACF
S11314000895C79A0895949A0895959A0895809195
S113141065008460809365000895AF9A0895AE9A3C
S11314200895AD9A0895AC9A0895AB9A0895AA9A2E
S11314300895A99A0895883059F168F4843001F127
S113144030F48230C9F0D0F48130B9F513C086305D
S1131450D9F0E0F417C08C3039F120F48A3001F16E
S113146008F518C08E3021F108F18F3019F1803160
S113147021F522C0D8980895D9980895DA98089546
S1131480C5980895C6980895C7980895949808959E
S113149095980895809165008B7F809365000895E9
S11314A0AF980895AE980895AD980895AC980895AE
S11314B0AB980895AA980895A9980895FC012181EC
S11314C0808190E0820F911D2281820F911D63E043
S11314D070E00E949514862F08959CE1899FF00185
S11314E01124EA5CFC4F8589882311F0158A08953C
S11314F0CF0141960C945E0A9CE1899FF00111246E
S1131500EA5CFC4F8485882311F014860895CF018A
S113151008960C945E0A90E697B997B19C7F97B9A8
S113152097B1982B97B9369A08951F93CF93DF9369
S113153080915209C0913503823009F46AC020F4C5
S1131540813009F001C107C0833009F4C1C084307F
S113155009F0FAC0E5C08CE1C89FE0011124CA5C1F
S1131560DC4F2B8530E0C901019663E070E00E94F6
S1131570A9148B879881943189F4809163098093AD
S11315806D098091A00D8093830D809163098093F0
S11315905E098091A00D80936C0906C0953121F4F9
S11315A0809163098093800B80916309FE01E20FAF
S11315B0F31F8087209163098E81821720F48B8129
S11315C0813009F008C0209163098F812817D8F46D
S11315D08A818823C1F089818F3F19F00E941B0AF8
S11315E00EC0923139F0933139F0913141F40E94B7
S11315F0450905C082E101C083E10E94A1091A8264
S1131600809163098C8782E0809352091D856E85E1
S113161092C09CE1C99FE0011124CA5CDC4F2C8973
S113162030E0C901019663E070E00E94A9148C8B3C
S11316309881973139F48091630980936E0981E030
S11316408093570980916309FE01E20FF31F818B98
S1131650209163098F858217D8F48B818130C1F082
S113166089818F3F19F00E941B0A0EC0923139F014
S1131670933139F0913141F40E94450905C082E16A
S113168001C083E10E94A1091A82809163098D8BB4
S11316901E89133029F083E0809352096F894BC06F
S11316A081E0809352098091350390E0019664E2D1
S11316B070E00E94A914809335032CE1289FF00167
S11316C0299FF00D1124EA5CFC4F1481658133C01D
S11316D0D0E04CE14C9FF0014D9FF00D1124EA5CE9
S11316E0FC4F238D30E0C901019663E070E00E9455
S11316F0A914838F80916309E20FF31F808F81E027
S113170080935209CE01019664E270E00E94A9140C
S113171080933503489FF001499FF00D11241DC0AB
S113172081E0809352099CE1C99FE0011124CA5CC5
S1131730DC4F1C816D81812F0E944C0983E393E768
S11317400197F1F7812F15C081E080935209E09150
S113175035039CE1E99FF0011124EA5CFC4FC4814C
S113176065818C2F0E944C0983E393E70197F1F77D
S11317708C2FDF91CF911F910C948B0A87E080937B
S1131780990089B988E18AB9EAE9F0E08083808127
S113179080648083808180688083569A579A0895F4
S11317A0FB0120813181F901E827FF27EE0FFF1F9C
S11317B0EA5FFE4F232F332780819181822793276D
S11317C0FB01918380830895FC01108272836183FD
S11317D056834583108617821482138211860895D6
S11317E04F925F926F927F928F929F92AF92BF922D
S11317F0CF92DF92EF92FF920F931F93CF93DF93D9
S113180000D01F92CDB7DEB76C015B0179011A825B
S11318101982009709F458C02115310509F454C000
S11318204C3018F0483309F051C044244394512CEF
S11318304C0E5D1EB201842F4B830E94D00B3701E6
S1131840600E711E470107C0B201F40181914F017E
S11318504B830E94D00B4B8186149704A9F789818E
S11318609A81F701E00FF11F908381830E5F1F4F70
S113187080ECF60180834183D70142E050E02DEDF6
S11318803BED6CED0FC08D91803C19F43083618386
S113189004C080838B3D21F421834E5F5F4F02C0DF
S11318A04F5F5F4FCD018E199F09F601E40FF51FBD
S11318B08017910740F380EC80834F5F5F4FF50101
S11318C05183408381E003C085E001C086E00F902E
S11318D00F900F90DF91CF911F910F91FF90EF9098
S11318E0DF90CF90BF90AF909F908F907F906F903C
S11318F05F904F900895CF92DF92EF92FF920F93F3
S11319001F93CF93DF93EC0129813A81211531058F
S113191009F484C08F8198854D815E8141505109BD
S11319208417950708F07CC04985423039F118F4D2
S1131930442331F038C0403131F04032A1F50AC0BF
S1131940603C91F50DC06C3018F0683309F06AC042
S1131950688326C0603C31F4892B11F081E021C0FA
S113196080E11FC06B3D11F482E01BC0F901E80F58
S1131970F91F6083019698878F8316C06C3D29F404
S1131980F901E80FF91F40EC07C06D3D09F04CC0A8
S1131990F901E80FF91F4BED4083019698878F8377
S11319A080E2898701C019868985813011F0898593
S11319B03CC089819A814F815885840F951FFC0111
S11319C03297308120E0FC01319780816901C80E93
S11319D0D11C4250510958874F837E0183E0E80EA1
S11319E0F11CB70188810E94D00B00E010E00AC00E
S11319F0E981FA81E00FF11FB70180810E94D00BC9
S1131A000F5F1F4F8F8198850817190788F38B8103
S1131A109C818C159D0559F284E007C085E005C0C2
S1131A2083E003C086E001C087E0DF91CF911F917E
S1131A300F91FF90EF90DF90CF900895282F30E022
S1131A40F901E15CF84F6081D901AA0FBB1FA95DC0
S1131A50BC4F4D915C9170E06417750710F58111CE
S1131A600EC080819FEF929FD001939FB00D1124EF
S1131A70A80FB11DAA5BB84F9C919CB910C08130CE
S1131A8081F480819FEF929FD001939FB00D112428
S1131A90A80FB11DAA5BB84F9C9190939C008F5FD7
S1131AA0808308951F920F920FB60F9211248F9383
S1131AB09F938091760B9091770B892B49F08091BD
S1131AC0760B9091770B01979093770B8093760B1D
S1131AD08091780B9091790B892B49F08091780B48
S1131AE09091790B01979093790B8093780B9F9148
S1131AF08F910F900FBE0F901F9018951F920F9209
S1131B000FB60F9211240BB60F922F933F934F935E
S1131B105F936F937F938F939F93AF93BF93CF9371
S1131B20EF93FF9380919C0D90919D0D892B51F51E
S1131B3080910B03882331F180EE91E090939D0D09
S1131B4080939C0DC1E0C093A10D809113050E9468
S1131B50D809C093140580912F050E94D809C09319
S1131B60300580914B050E94D809C0934C0581E152
S1131B700E94BB0982E10E94BB0983E10E94BB0968
S1131B8010920B0380919E0D90919F0D892B39F437
S1131B9080912203811103C081E08093220380910C
S1131BA09C0D90919D0D019790939D0D80939C0D9C
S1131BB080919E0D90919F0D019790939F0D80931E
S1131BC09E0DFF91EF91CF91BF91AF919F918F9116
S1131BD07F916F915F914F913F912F910F900BBE29
S1131BE00F900FBE0F901F9018951F920F920FB673
S1131BF00F9211240BB60F922F933F934F935F9341
S1131C006F937F938F939F93AF93BF93EF93FF93C0
S1131C1081E00E941E0DFF91EF91BF91AF919F91C2
S1131C208F917F916F915F914F913F912F910F9081
S1131C300BBE0F900FBE0F901F9018951F920F921E
S1131C400FB60F9211240BB60F922F933F934F931D
S1131C505F936F937F938F939F93AF93BF93EF9310
S1131C60FF9360919C008091A90D9091AA0D0E9410
S1131C707B0C813029F48091AD0D8F5F8093AD0D85
S1131C80FF91EF91BF91AF919F918F917F916F9150
S1131C905F914F913F912F910F900BBE0F900FBE0C
S1131CA00F901F9018951F920F920FB60F92112448
S1131CB08F9384B18093A00D85B18093630981E0F3
S1131CC0809345098F910F900FBE0F901F90189528
S1131CD01F920F920FB60F9211240BB60F922F93EF
S1131CE03F934F935F936F937F938F939F93AF93A0
S1131CF0BF93EF93FF9380E00E941E0DFF91EF913D
S1131D00BF91AF919F918F917F916F915F914F910F
S1131D103F912F910F900BBE0F900FBE0F901F900D
S1131D2018951F920F920FB60F9211240BB60F92B3
S1131D302F933F934F935F936F937F938F939F93CF
S1131D40AF93BF93EF93FF936CB18091A70D9091E4
S1131D50A80D0E947B0C813029F48091AC0D8F5F1B
S1131D608093AC0DFF91EF91BF91AF919F918F91B3
S1131D707F916F915F914F913F912F910F900BBE87
S1131D800F900FBE0F901F901895823010F40C9492
S1131D901E0D08952F923F924F925F926F927F9201
S1131DA08F929F92AF92BF92CF92DF92EF92FF9267
S1131DB00F931F93CF93DF93CDB7DEB728970FB65A
S1131DC0F894DEBF0FBECDBF98878F83DC011C92D1
S1131DD030915004330F80916C04B4E08B9FC001A8
S1131DE01124382B80913404382B80918804E8E046
S1131DF08E9FC0011124382B8091DC04F0E18F9F69
S1131E00C0011124382B8091F80420E2829FC00184
S1131E101124382B40913005440F80914C0554E037
S1131E20859FC0011124482B80911405482BE4EAB6
S1131E30F4E08081A8E08A9FC0011124482B2091FE
S1131E405403220F80917003B4E08B9FC0011124CE
S1131E50282B80913803282B8091A80358E0859F74
S1131E60C0011124282B8091C403A0E18A9FC001E2
S1131E701124282B8091E003B0E28B9FC001112430
S1131E80282B8091FC0350E4859FC0011124282B4A
S1131E9080911804A0E88A9FC0011124282BAF81E7
S1131EA0B88511962C93119712963C93129713961A
S1131EB04C93139789E914968C9314978081159603
S1131EC08C9326E3622E23E0722EF30180810E941C
S1131ED07C0AAF81B88516968C9332E5832E33E065
S1131EE0932EF40180810E947C0AAF81B8851796F5
S1131EF08C934EE6A42E43E0B42EF50180810E941B
S1131F007C0AAF81B88518968C935AE8C52E53E0A5
S1131F10D52EF60180810E947C0AAF81B88519967E
S1131F208C9366EAE62E63E0F62EF70180810E9428
S1131F307C0AAF81B8851A968C930EED13E0F801F4
S1131F4080810E947C0AAF81B8851B968C93EAEF4E
S1131F50F3E080810E947C0AAF81B8851C968C9343
S1131F6076E1472E74E0572EF20180810E947C0AAC
S1131F70AF81B8851D968C93E2E32E2EE4E03E2ECD
S1131F80F10180810E947C0AAF81B8851E968C93F2
S1131F902EE434E0F901808129833A830E947C0A8B
S1131FA0AF81B8851F968C934AE654E0FA0180818C
S1131FB04B835C830E947C0AAF81B88550968C93D6
S1131FC066E874E0FB0180816D837E830E947C0A55
S1131FD0AF81B88551968C93EAEDF4E080810E943C
S1131FE07C0AAF81B88552968C93E6EFF4E0808149
S1131FF00E947C0AAF81B88553968C93E2E1F5E0A8
S113200080810E947C0AAF81B88554968C93EEE25D
S1132010F5E080810E947C0AAF81B88555968C9347
S1132020EAE4F5E080810E947C0AAF81B885569687
S11320308C93E6E6F5E080810E947C0AAF81B88546
S113204057968C93E2E8F5E080810E947C0AAF8188
S1132050B88558968C93EEE9F5E080810E947C0A5D
S1132060AF81B88559968C93EAEBF5E080810E94A4
S11320707C0AAF81B8855A968C93E6EDF5E08081B1
S11320800E947C0AAF81B8855B968C93E2EFF5E001
S113209080810E947C0AAF81B8855C968C93EEE0C7
S11320A0F6E080810E947C0AAF81B8855D968C93AE
S11320B0EAE2F6E080810E947C0AAF81B8855E96F0
S11320C08C93E6E4F6E080810E947C0AAF81B885B7
S11320D05F968C93E2E6F6E080810E947C0AAF81F1
S11320E0B88590968C93EEE7F6E080810E947C0A96
S11320F0AF81B88591968C93EAE9F6E080810E94DD
S11321007C0AAF81B88592968C93E6EBF6E08081E9
S11321100E947C0AAF81B88593968C93E2EDF6E039
S113212080810E947C0AAF81B88594968C93EEEEF0
S1132130F6E080810E947C0AAF81B88595968C93E5
S113214080910A070E947C0AEF81F88586A317A272
S113215010A611A612A613A6D3018C910E946D0A93
S1132160EF81F88584A7D4018C910E946D0AEF81D8
S1132170F88585A7D5018C910E946D0AEF81F885B9
S113218086A7D6018C910E946D0AEF81F88587A7F6
S1132190D7018C910E946D0AEF81F88580ABD8013C
S11321A08C910E946D0AEF81F88581ABAAEFB3E0B0
S11321B08C910E946D0AEF81F88582ABD2018C91DB
S11321C00E946D0AEF81F88583ABD1018C910E9446
S11321D06D0AEF81F88584AB29813A81D9018C910C
S11321E00E946D0AEF81F88585AB4B815C81DA0131
S11321F08C910E946D0AEF81F88586AB6D817E819A
S1132200DB018C910E946D0AEF81F88587ABAAED02
S1132210B4E08C910E946D0AEF81F88580AFA6EF3F
S1132220B4E08C910E946D0AEF81F88581AFA2E140
S1132230B5E08C910E946D0AEF81F88582AFAEE221
S1132240B5E08C910E946D0AEF81F88583AFAAE412
S1132250B5E08C910E946D0AEF81F88584AFA6E603
S1132260B5E08C910E946D0AEF81F88585AFA2E8F4
S1132270B5E08C910E946D0AEF81F88586AFAEE9D6
S1132280B5E08C910E946D0AEF81F88587AFAAEBC7
S1132290B5E08C910E946D0AEF81F885E05CFF4FF8
S11322A08083E6EDF5E080810E946D0AEF81F88578
S11322B0EF5BFF4F8083A2EFB5E08C910E946D0A23
S11322C0EF81F885EE5BFF4F8083EEE0F6E08081DE
S11322D00E946D0AEF81F885ED5BFF4F8083AAE2CF
S11322E0B6E08C910E946D0AEF81F885EC5BFF4F9C
S11322F08083E6E4F6E080810E946D0AEF81F88530
S1132300EB5BFF4F8083A2E6B6E08C910E946D0ADE
S1132310EF81F885EA5BFF4F8083EEE7F6E080818A
S11323200E946D0AEF81F885E95BFF4F8083AAE97B
S1132330B6E08C910E946D0AEF81F885E85BFF4F4F
S11323408083E6EBF6E080810E946D0AEF81F885D8
S1132350E75BFF4F8083A2EDB6E08C910E946D0A8B
S1132360EF81F885E65BFF4F8083EEEEF6E0808137
S11323700E946D0AEF81F885E55BFF4F8083EF8152
S1132380F885E45BFF4F8FEF8083EF81F885E35B93
S1132390FF4F90916D099083EF81F885E25BFF4FC9
S11323A09091B00F9083EF81F885E15BFF4F10822D
S11323B0EF81F885E05BFF4F1082EF81F885EF5ADB
S11323C0FF4F1082EF81F885EE5AFF4F9091350749
S11323D09083EF81F885ED5AFF4F80838AE995E079
S11323E00E945E0AEF81F885EC5AFF4F808382EDEC
S11323F095E00E945E0AEF81F885EB5AFF4F8083D7
S11324008EEE95E00E945E0AEF81F885EA5AFF4F4E
S113241080838AE096E00E945E0AEF81F885E95A9B
S1132420FF4F808386E296E00E945E0AEF81F88582
S1132430E85AFF4F808382E496E00E945E0AEF81AF
S1132440F885E75AFF4F808382EB96E00E945E0A8C
S1132450EF81F885E65AFF4F808382E297E00E947D
S11324605E0AEF81F885E55AFF4F808380917F0BE8
S113247010927F0BEF81F885E45AFF4F808380919F
S11324807A0B10927A0BEF81F885E35AFF4F808321
S113249028960FB6F894DEBF0FBECDBFDF91CF9163
S11324A01F910F91FF90EF90DF90CF90BF90AF906E
S11324B09F908F907F906F905F904F903F902F9060
S11324C008956F927F928F929F92BF92CF92DF92E4
S11324D0EF92FF920F931F93CF93DF93B82E613047
S11324E0B9F020F0623009F08BC022C0C82FD0E0D0
S11324F02FEF829FC00111248E54924F0E94CA0E66
S1132500FE01EE0FFF1FE95CF84F80E690E021C06A
S1132510E82FF0E08FEFB89ED0011124AE54B24FF3
S11325206C93EE0FFF1FE95CF84F81E090E011C05F
S1132530E82FF0E02FEF829FD0011124AE54B24F68
S11325406C9311964C93EE0FFF1FE95CF84F82E0F9
S113255090E0918380838B2C912C8FEFB89E700137
S11325601124E701C858D64F6401CC0CDD1CF601D8
S1132570E95CF84F0081118197012E54324FA4E891
S11325806A2EADE07A2E6C0C7D1C41E0B301CE01C5
S11325900E94F00B8130A1F5F30180819181F60155
S11325A0E95DFC4F918380838081918197012A5B4F
S11325B0384FAC01BE01C9010E94F715F401E15C7A
S11325C0F84F1082F1E0BF1206C080919B0088236F
S11325D0B9F081E006C0B11013C08BB1882381F03B
S11325E080E0DF91CF911F910F91FF90EF90DF90EA
S11325F0CF90BF909F908F907F906F900C94C50E5A
S1132600DF91CF911F910F91FF90EF90DF90CF90CA
S1132610BF909F908F907F906F9008955058BB27E4
S1132620AA270ED044C135D130F03AD120F031F48C
S11326309F3F11F41EF42AC10EF4E095E7FB20C17C
S1132640E92F46D180F3BA17620773078407950709
S113265018F071F49EF55EC10EF4E0950B2EBA2FBE
S1132660A02D0B01B90190010C01CA01A001112494
S1132670FF27591B99F0593F50F4503E68F11A1640
S1132680F040A22F232F342F4427585FF3CF4695D1
S113269037952795A795F0405395C9F77EF41F16F3
S11326A0BA0B620B730B840BBAF09150A1F0FF0FBD
S11326B0BB1F661F771F881FC2F70EC0BA0F621FA9
S11326C0731F841F48F4879577956795B795F79599
S11326D09E3F08F0B3CF9395880F08F09927EE0F2B
S11326E0979587950895A8D008F481E008950CD0B3
S11326F0DEC0D6D040F0CDD030F021F45F3F19F0E9
S1132700BFC0511108C1C2C0E3D098F39923C9F3E3
S11327105523B1F3951B550BBB27AA2762177307E3
S1132720840738F09F5F5F4F220F331F441FAA1F97
S1132730A9F333D00E2E3AF0E0E830D09150504057
S1132740E695001CCAF729D0FE2F27D0660F771F05
S1132750881FBB1F261737074807AB07B0E809F0E7
S1132760BB0B802DBF01FF2793585F4F2AF09E3F7C
S1132770510568F085C0CFC05F3FECF3983EDCF3B1
S1132780869577956795B795F7959F5FC9F7880FF5
S1132790911D9695879597F90895E1E0660F771F47
S11327A0881FBB1F621773078407BA0720F0621BD8
S11327B0730B840BBA0BEE1F88F7E0950895E89429
S11327C009C097FB3EF490958095709561957F4F75
S11327D08F4F9F4F9923A9F0F92F96E9BB27939523
S11327E0F695879577956795B795F111F8CFFAF433
S11327F0BB0F11F460FF1BC06F5F7F4F8F4F9F4F64
S113280016C0882311F096E911C0772321F09EE8C1
S1132810872F762F05C0662371F096E8862F70E027
S113282060E02AF09A95660F771F881FDAF7880F01
S11328309695879597F90895990F0008550FAA0B57
S1132840E0E8FEEF16161706E807F907C0F01216BF
S11328501306E407F50798F0621B730B840B950BC2
S113286039F40A2661F0232B242B252B21F4089517
S11328700A2609F4A140A6958FEF811D811D0895B4
S113288097F99F6780E870E060E008959FEF80EC1F
S1132890089500240A9416161706180609060895C2
S11328A000240A9412161306140605060895092E28
S11328B00394000C11F4882352F0BB0F40F4BF2B97
S11328C011F460FF04C06F5F7F4F8F4F9F4F0895D7
S11328D057FD9058440F551F59F05F3F71F04795CD
S11328E0880F97FB991F61F09F3F79F087950895B2
S11328F0121613061406551FF2CF4695F1DF08C0D1
S1132900161617061806991FF1CF869571056105ED
S113291008940895E894BB2766277727CB0197F995
S113292008958ADF08F48FEF0895AA1BBB1B51E1B9
S113293007C0AA1FBB1FA617B70710F0A61BB70B2B
S1132940881F991F5A95A9F780959095BC01CD01D0
S1132950089597FB072E16F4009407D077FD09D04D
S11329600E94951407FC05D03EF4909581959F4FE5
S11329700895709561957F4F08950F931F93CF939A
S1132980DF938230910510F482E090E0E091B30F80
S1132990F091B40F20E030E0C0E0D0E023C04081EB
S11329A0518148175907A8F04817590761F48281E3
S11329B09381209719F09B838A832EC09093B40F40
S11329C08093B30F29C02115310529F0421753070D
S11329D010F0A90102C0BE01DF0102811381EF01E1
S11329E09A01F8013097D9F62115310509F1281B10
S11329F0390B2430310590F412968D919C911397E4
S1132A006115710521F0FB019383828304C09093C7
S1132A10B40F8093B30FFD01329644C0FD01E20F61
S1132A20F31F81939193225031092D933C933AC023
S1132A302091B10F3091B20F232B41F42091020168
S1132A40309103013093B20F2093B10F2091000114
S1132A50309101012115310541F42DB73EB7409164
S1132A60040150910501241B350BE091B10FF09145
S1132A70B20FE217F307A0F42E1B3F0B28173907F8
S1132A8078F0AC014E5F5F4F2417350748F04E0FC6
S1132A905F1F5093B20F4093B10F8193919302C083
S1132AA0E0E0F0E0CF01DF91CF911F910F91089505
S1132AB0EF92FF920F931F93CF93DF93009709F444
S1132AC08FC0DC01129713961C921E921297E0900D
S1132AD0B30FF090B40FE114F10489F42D913C91FB
S1132AE01197280F391F8091B10F9091B20F82175F
S1132AF0930789F5B093B20FA093B10F71C0E701AA
S1132B0020E030E001C0EA01CA17DB0738F44A814B
S1132B105B819E0141155105B1F722C0BC01625091
S1132B207109FB01D383C28300811181AC01400F81
S1132B30511F4C175D0761F448815981400F511FA3
S1132B404E5F5F4F518340834A815B81538342834D
S1132B502115310529F4B093B40FA093B30F40C0ED
S1132B60F901B383A283E90169917991C60FD71F53
S1132B70AC17BD0779F4DC015E914E91460F571FE7
S1132B804E5F5F4F5183408312968D919C911397B2
S1132B9093838283A0E0B0E002C0D7017C01F701F7
S1132BA0828193810097C9F7C70102962081318100
S1132BB0820F931F2091B10F3091B20F281739075C
S1132BC079F4109729F41092B40F1092B30F04C043
S1132BD013961C921E921297F092B20FE092B10FCC
S1132BE0DF91CF911F910F91FF90EF900895FB011A
S1132BF0DC0102C001900D9241505040D8F7089575
S1072C00F894FFCF72
S1132C040000B50F20000000891112239B322446D2
S1132C14AD573665BF74488CC19D5AAFD3BE6CCAD8
S1132C24E5DB7EE9F7F88110080193331A22A556EF
S1132C342C47B7753E64C99C408DDBBF52AEEDDAB8
S1132C4464CBFFF976E802218B30100299132667CE
S1132C54AF763444BD554AADC3BC588ED19F6EEB98
S1132C64E7FA7CC8F5D983310A2091121803A777AF
S1132C742E66B5543C45CBBD42ACD99E508FEFFB78
S1132C8466EAFDD874C904428D5316619F7020040A
S1132C94A9153227BB364CCEC5DF5EEDD7FC688858
S1132CA4E1997AABF3BA85520C4397711E60A1146F
S1132CB42805B3373A26CDDE44CFDFFD56ECE99838
S1132CC46089FBBB72AA06638F7214409D5122254E
S1132CD4AB343006B9174EEFC7FE5CCCD5DD6AA918
S1132CE4E3B8788AF19B87730E6295501C41A3352F
S1132CF42A24B1163807CFFF46EEDDDC54CDEBB9F8
S1132D0462A8F99A708B088481951AA793B62CC289
S1132D14A5D33EE1B7F04008C919522BDB3A644EFF
S1132D24ED5F766DFF7C899400859BB712A6ADD2C6
S1132D3424C3BFF136E0C1184809D33B5A2AE55EDF
S1132D446C4FF77D7E6C0AA583B4188691972EE3A5
S1132D54A7F23CC0B5D14229CB38500AD91B666FBF
S1132D64EF7E744CFD5D8BB502A499961087AFF386
S1132D7426E2BDD034C1C3394A28D11A580BE77F9F
S1132D846E6EF55C7C4D0CC685D71EE597F42880E1
S1132D94A1913AA3B3B2444ACD5B5669DF78600C7F
S1132DA4E91D722FFB3E8DD604C79FF516E4A99046
S1132DB42081BBB332A2C55A4C4BD7795E68E11C5F
S1132DC4680DF33F7A2E0EE787F61CC495D52AA125
S1132DD4A3B03882B193466BCF7A5448DD59622D3F
S1132DE4EB3C700EF91F8FF706E69DD414C5ABB106
S1132DF422A0B9923083C77B4E6AD5585C49E33D1F
S1092E046A2CF11E780F98
S9030000FC
